{
  "address": "0x4a88b0011E37A0F6D79C548cD29E4427a838C2a2",
  "abi": [
    {
      "anonymous": false,
      "inputs": [
        {
          "indexed": true,
          "internalType": "address",
          "name": "accountOwner",
          "type": "address"
        },
        {
          "indexed": true,
          "internalType": "address",
          "name": "operator",
          "type": "address"
        },
        {
          "indexed": false,
          "internalType": "bool",
          "name": "isSet",
          "type": "bool"
        }
      ],
      "name": "AccountOperatorUpdated",
      "type": "event"
    },
    {
      "anonymous": false,
      "inputs": [
        {
          "indexed": true,
          "internalType": "address",
          "name": "from",
          "type": "address"
        },
        {
          "indexed": true,
          "internalType": "address",
          "name": "to",
          "type": "address"
        },
        {
          "indexed": false,
          "internalType": "bytes",
          "name": "data",
          "type": "bytes"
        }
      ],
      "name": "CallExecuted",
      "type": "event"
    },
    {
      "anonymous": false,
      "inputs": [
        {
          "indexed": false,
          "internalType": "bool",
          "name": "isRestricted",
          "type": "bool"
        }
      ],
      "name": "CallRestricted",
      "type": "event"
    },
    {
      "anonymous": false,
      "inputs": [
        {
          "indexed": true,
          "internalType": "address",
          "name": "asset",
          "type": "address"
        },
        {
          "indexed": true,
          "internalType": "address",
          "name": "accountOwner",
          "type": "address"
        },
        {
          "indexed": true,
          "internalType": "address",
          "name": "from",
          "type": "address"
        },
        {
          "indexed": false,
          "internalType": "uint256",
          "name": "vaultId",
          "type": "uint256"
        },
        {
          "indexed": false,
          "internalType": "uint256",
          "name": "amount",
          "type": "uint256"
        }
      ],
      "name": "CollateralAssetDeposited",
      "type": "event"
    },
    {
      "anonymous": false,
      "inputs": [
        {
          "indexed": true,
          "internalType": "address",
          "name": "asset",
          "type": "address"
        },
        {
          "indexed": true,
          "internalType": "address",
          "name": "AccountOwner",
          "type": "address"
        },
        {
          "indexed": true,
          "internalType": "address",
          "name": "to",
          "type": "address"
        },
        {
          "indexed": false,
          "internalType": "uint256",
          "name": "vaultId",
          "type": "uint256"
        },
        {
          "indexed": false,
          "internalType": "uint256",
          "name": "amount",
          "type": "uint256"
        }
      ],
      "name": "CollateralAssetWithdrawed",
      "type": "event"
    },
    {
      "anonymous": false,
      "inputs": [
        {
          "indexed": true,
          "internalType": "address",
          "name": "donator",
          "type": "address"
        },
        {
          "indexed": true,
          "internalType": "address",
          "name": "asset",
          "type": "address"
        },
        {
          "indexed": false,
          "internalType": "uint256",
          "name": "amount",
          "type": "uint256"
        }
      ],
      "name": "Donated",
      "type": "event"
    },
    {
      "anonymous": false,
      "inputs": [
        {
          "indexed": true,
          "internalType": "address",
          "name": "oldFullPauser",
          "type": "address"
        },
        {
          "indexed": true,
          "internalType": "address",
          "name": "newFullPauser",
          "type": "address"
        }
      ],
      "name": "FullPauserUpdated",
      "type": "event"
    },
    {
      "anonymous": false,
      "inputs": [
        {
          "indexed": true,
          "internalType": "address",
          "name": "otoken",
          "type": "address"
        },
        {
          "indexed": true,
          "internalType": "address",
          "name": "accountOwner",
          "type": "address"
        },
        {
          "indexed": true,
          "internalType": "address",
          "name": "from",
          "type": "address"
        },
        {
          "indexed": false,
          "internalType": "uint256",
          "name": "vaultId",
          "type": "uint256"
        },
        {
          "indexed": false,
          "internalType": "uint256",
          "name": "amount",
          "type": "uint256"
        }
      ],
      "name": "LongOtokenDeposited",
      "type": "event"
    },
    {
      "anonymous": false,
      "inputs": [
        {
          "indexed": true,
          "internalType": "address",
          "name": "otoken",
          "type": "address"
        },
        {
          "indexed": true,
          "internalType": "address",
          "name": "AccountOwner",
          "type": "address"
        },
        {
          "indexed": true,
          "internalType": "address",
          "name": "to",
          "type": "address"
        },
        {
          "indexed": false,
          "internalType": "uint256",
          "name": "vaultId",
          "type": "uint256"
        },
        {
          "indexed": false,
          "internalType": "uint256",
          "name": "amount",
          "type": "uint256"
        }
      ],
      "name": "LongOtokenWithdrawed",
      "type": "event"
    },
    {
      "anonymous": false,
      "inputs": [
        {
          "indexed": true,
          "internalType": "address",
          "name": "collateral",
          "type": "address"
        },
        {
          "indexed": false,
          "internalType": "uint256",
          "name": "cap",
          "type": "uint256"
        }
      ],
      "name": "NakedCapUpdated",
      "type": "event"
    },
    {
      "anonymous": false,
      "inputs": [
        {
          "indexed": true,
          "internalType": "address",
          "name": "previousOwner",
          "type": "address"
        },
        {
          "indexed": true,
          "internalType": "address",
          "name": "newOwner",
          "type": "address"
        }
      ],
      "name": "OwnershipTransferred",
      "type": "event"
    },
    {
      "anonymous": false,
      "inputs": [
        {
          "indexed": true,
          "internalType": "address",
          "name": "oldPartialPauser",
          "type": "address"
        },
        {
          "indexed": true,
          "internalType": "address",
          "name": "newPartialPauser",
          "type": "address"
        }
      ],
      "name": "PartialPauserUpdated",
      "type": "event"
    },
    {
      "anonymous": false,
      "inputs": [
        {
          "indexed": true,
          "internalType": "address",
          "name": "otoken",
          "type": "address"
        },
        {
          "indexed": true,
          "internalType": "address",
          "name": "redeemer",
          "type": "address"
        },
        {
          "indexed": true,
          "internalType": "address",
          "name": "receiver",
          "type": "address"
        },
        {
          "indexed": false,
          "internalType": "address",
          "name": "collateralAsset",
          "type": "address"
        },
        {
          "indexed": false,
          "internalType": "uint256",
          "name": "otokenBurned",
          "type": "uint256"
        },
        {
          "indexed": false,
          "internalType": "uint256",
          "name": "payout",
          "type": "uint256"
        }
      ],
      "name": "Redeem",
      "type": "event"
    },
    {
      "anonymous": false,
      "inputs": [
        {
          "indexed": true,
          "internalType": "address",
          "name": "otoken",
          "type": "address"
        },
        {
          "indexed": true,
          "internalType": "address",
          "name": "AccountOwner",
          "type": "address"
        },
        {
          "indexed": true,
          "internalType": "address",
          "name": "from",
          "type": "address"
        },
        {
          "indexed": false,
          "internalType": "uint256",
          "name": "vaultId",
          "type": "uint256"
        },
        {
          "indexed": false,
          "internalType": "uint256",
          "name": "amount",
          "type": "uint256"
        }
      ],
      "name": "ShortOtokenBurned",
      "type": "event"
    },
    {
      "anonymous": false,
      "inputs": [
        {
          "indexed": true,
          "internalType": "address",
          "name": "otoken",
          "type": "address"
        },
        {
          "indexed": true,
          "internalType": "address",
          "name": "AccountOwner",
          "type": "address"
        },
        {
          "indexed": true,
          "internalType": "address",
          "name": "to",
          "type": "address"
        },
        {
          "indexed": false,
          "internalType": "uint256",
          "name": "vaultId",
          "type": "uint256"
        },
        {
          "indexed": false,
          "internalType": "uint256",
          "name": "amount",
          "type": "uint256"
        }
      ],
      "name": "ShortOtokenMinted",
      "type": "event"
    },
    {
      "anonymous": false,
      "inputs": [
        {
          "indexed": false,
          "internalType": "bool",
          "name": "isPaused",
          "type": "bool"
        }
      ],
      "name": "SystemFullyPaused",
      "type": "event"
    },
    {
      "anonymous": false,
      "inputs": [
        {
          "indexed": false,
          "internalType": "bool",
          "name": "isPaused",
          "type": "bool"
        }
      ],
      "name": "SystemPartiallyPaused",
      "type": "event"
    },
    {
      "anonymous": false,
      "inputs": [
        {
          "indexed": true,
          "internalType": "address",
          "name": "liquidator",
          "type": "address"
        },
        {
          "indexed": true,
          "internalType": "address",
          "name": "receiver",
          "type": "address"
        },
        {
          "indexed": true,
          "internalType": "address",
          "name": "vaultOwner",
          "type": "address"
        },
        {
          "indexed": false,
          "internalType": "uint256",
          "name": "auctionPrice",
          "type": "uint256"
        },
        {
          "indexed": false,
          "internalType": "uint256",
          "name": "auctionStartingRound",
          "type": "uint256"
        },
        {
          "indexed": false,
          "internalType": "uint256",
          "name": "collateralPayout",
          "type": "uint256"
        },
        {
          "indexed": false,
          "internalType": "uint256",
          "name": "debtAmount",
          "type": "uint256"
        },
        {
          "indexed": false,
          "internalType": "uint256",
          "name": "vaultId",
          "type": "uint256"
        }
      ],
      "name": "VaultLiquidated",
      "type": "event"
    },
    {
      "anonymous": false,
      "inputs": [
        {
          "indexed": true,
          "internalType": "address",
          "name": "accountOwner",
          "type": "address"
        },
        {
          "indexed": false,
          "internalType": "uint256",
          "name": "vaultId",
          "type": "uint256"
        },
        {
          "indexed": true,
          "internalType": "uint256",
          "name": "vaultType",
          "type": "uint256"
        }
      ],
      "name": "VaultOpened",
      "type": "event"
    },
    {
      "anonymous": false,
      "inputs": [
        {
          "indexed": true,
          "internalType": "address",
          "name": "accountOwner",
          "type": "address"
        },
        {
          "indexed": true,
          "internalType": "address",
          "name": "oTokenAddress",
          "type": "address"
        },
        {
          "indexed": false,
          "internalType": "address",
          "name": "to",
          "type": "address"
        },
        {
          "indexed": false,
          "internalType": "uint256",
          "name": "payout",
          "type": "uint256"
        },
        {
          "indexed": false,
          "internalType": "uint256",
          "name": "vaultId",
          "type": "uint256"
        },
        {
          "indexed": true,
          "internalType": "uint256",
          "name": "vaultType",
          "type": "uint256"
        }
      ],
      "name": "VaultSettled",
      "type": "event"
    },
    {
      "inputs": [],
      "name": "addressbook",
      "outputs": [
        {
          "internalType": "contract AddressBookInterface",
          "name": "",
          "type": "address"
        }
      ],
      "stateMutability": "view",
      "type": "function"
    },
    {
      "inputs": [],
      "name": "calculator",
      "outputs": [
        {
          "internalType": "contract MarginCalculatorInterface",
          "name": "",
          "type": "address"
        }
      ],
      "stateMutability": "view",
      "type": "function"
    },
    {
      "inputs": [],
      "name": "callRestricted",
      "outputs": [
        {
          "internalType": "bool",
          "name": "",
          "type": "bool"
        }
      ],
      "stateMutability": "view",
      "type": "function"
    },
    {
      "inputs": [
        {
          "internalType": "address",
          "name": "_underlying",
          "type": "address"
        },
        {
          "internalType": "address",
          "name": "_strike",
          "type": "address"
        },
        {
          "internalType": "address",
          "name": "_collateral",
          "type": "address"
        },
        {
          "internalType": "uint256",
          "name": "_expiry",
          "type": "uint256"
        }
      ],
      "name": "canSettleAssets",
      "outputs": [
        {
          "internalType": "bool",
          "name": "",
          "type": "bool"
        }
      ],
      "stateMutability": "view",
      "type": "function"
    },
    {
      "inputs": [
        {
          "internalType": "address",
          "name": "_asset",
          "type": "address"
        },
        {
          "internalType": "uint256",
          "name": "_amount",
          "type": "uint256"
        }
      ],
      "name": "donate",
      "outputs": [],
      "stateMutability": "nonpayable",
      "type": "function"
    },
    {
      "inputs": [],
      "name": "fullPauser",
      "outputs": [
        {
          "internalType": "address",
          "name": "",
          "type": "address"
        }
      ],
      "stateMutability": "view",
      "type": "function"
    },
    {
      "inputs": [
        {
          "internalType": "address",
          "name": "_accountOwner",
          "type": "address"
        }
      ],
      "name": "getAccountVaultCounter",
      "outputs": [
        {
          "internalType": "uint256",
          "name": "",
          "type": "uint256"
        }
      ],
      "stateMutability": "view",
      "type": "function"
    },
    {
      "inputs": [],
      "name": "getConfiguration",
      "outputs": [
        {
          "internalType": "address",
          "name": "",
          "type": "address"
        },
        {
          "internalType": "address",
          "name": "",
          "type": "address"
        },
        {
          "internalType": "address",
          "name": "",
          "type": "address"
        },
        {
          "internalType": "address",
          "name": "",
          "type": "address"
        }
      ],
      "stateMutability": "view",
      "type": "function"
    },
    {
      "inputs": [
        {
          "internalType": "address",
          "name": "_asset",
          "type": "address"
        }
      ],
      "name": "getNakedCap",
      "outputs": [
        {
          "internalType": "uint256",
          "name": "",
          "type": "uint256"
        }
      ],
      "stateMutability": "view",
      "type": "function"
    },
    {
      "inputs": [
        {
          "internalType": "address",
          "name": "_asset",
          "type": "address"
        }
      ],
      "name": "getNakedPoolBalance",
      "outputs": [
        {
          "internalType": "uint256",
          "name": "",
          "type": "uint256"
        }
      ],
      "stateMutability": "view",
      "type": "function"
    },
    {
      "inputs": [
        {
          "internalType": "address",
          "name": "_otoken",
          "type": "address"
        },
        {
          "internalType": "uint256",
          "name": "_amount",
          "type": "uint256"
        }
      ],
      "name": "getPayout",
      "outputs": [
        {
          "internalType": "uint256",
          "name": "",
          "type": "uint256"
        }
      ],
      "stateMutability": "view",
      "type": "function"
    },
    {
      "inputs": [
        {
          "internalType": "address",
          "name": "_owner",
          "type": "address"
        },
        {
          "internalType": "uint256",
          "name": "_vaultId",
          "type": "uint256"
        }
      ],
      "name": "getProceed",
      "outputs": [
        {
          "internalType": "uint256",
          "name": "",
          "type": "uint256"
        }
      ],
      "stateMutability": "view",
      "type": "function"
    },
    {
      "inputs": [
        {
          "internalType": "address",
          "name": "_owner",
          "type": "address"
        },
        {
          "internalType": "uint256",
          "name": "_vaultId",
          "type": "uint256"
        }
      ],
      "name": "getVault",
      "outputs": [
        {
          "components": [
            {
              "internalType": "address[]",
              "name": "shortOtokens",
              "type": "address[]"
            },
            {
              "internalType": "address[]",
              "name": "longOtokens",
              "type": "address[]"
            },
            {
              "internalType": "address[]",
              "name": "collateralAssets",
              "type": "address[]"
            },
            {
              "internalType": "uint256[]",
              "name": "shortAmounts",
              "type": "uint256[]"
            },
            {
              "internalType": "uint256[]",
              "name": "longAmounts",
              "type": "uint256[]"
            },
            {
              "internalType": "uint256[]",
              "name": "collateralAmounts",
              "type": "uint256[]"
            }
          ],
          "internalType": "struct MarginVault.Vault",
          "name": "",
          "type": "tuple"
        }
      ],
      "stateMutability": "view",
      "type": "function"
    },
    {
      "inputs": [
        {
          "internalType": "address",
          "name": "_owner",
          "type": "address"
        },
        {
          "internalType": "uint256",
          "name": "_vaultId",
          "type": "uint256"
        }
      ],
      "name": "getVaultWithDetails",
      "outputs": [
        {
          "components": [
            {
              "internalType": "address[]",
              "name": "shortOtokens",
              "type": "address[]"
            },
            {
              "internalType": "address[]",
              "name": "longOtokens",
              "type": "address[]"
            },
            {
              "internalType": "address[]",
              "name": "collateralAssets",
              "type": "address[]"
            },
            {
              "internalType": "uint256[]",
              "name": "shortAmounts",
              "type": "uint256[]"
            },
            {
              "internalType": "uint256[]",
              "name": "longAmounts",
              "type": "uint256[]"
            },
            {
              "internalType": "uint256[]",
              "name": "collateralAmounts",
              "type": "uint256[]"
            }
          ],
          "internalType": "struct MarginVault.Vault",
          "name": "",
          "type": "tuple"
        },
        {
          "internalType": "uint256",
          "name": "",
          "type": "uint256"
        },
        {
          "internalType": "uint256",
          "name": "",
          "type": "uint256"
        }
      ],
      "stateMutability": "view",
      "type": "function"
    },
    {
      "inputs": [
        {
          "internalType": "address",
          "name": "_otoken",
          "type": "address"
        }
      ],
      "name": "hasExpired",
      "outputs": [
        {
          "internalType": "bool",
          "name": "",
          "type": "bool"
        }
      ],
      "stateMutability": "view",
      "type": "function"
    },
    {
      "inputs": [
        {
          "internalType": "address",
          "name": "_addressBook",
          "type": "address"
        },
        {
          "internalType": "address",
          "name": "_owner",
          "type": "address"
        }
      ],
      "name": "initialize",
      "outputs": [],
      "stateMutability": "nonpayable",
      "type": "function"
    },
    {
      "inputs": [
        {
          "internalType": "address",
          "name": "_owner",
          "type": "address"
        },
        {
          "internalType": "uint256",
          "name": "_vaultId",
          "type": "uint256"
        },
        {
          "internalType": "uint256",
          "name": "_roundId",
          "type": "uint256"
        }
      ],
      "name": "isLiquidatable",
      "outputs": [
        {
          "internalType": "bool",
          "name": "",
          "type": "bool"
        },
        {
          "internalType": "uint256",
          "name": "",
          "type": "uint256"
        },
        {
          "internalType": "uint256",
          "name": "",
          "type": "uint256"
        }
      ],
      "stateMutability": "view",
      "type": "function"
    },
    {
      "inputs": [
        {
          "internalType": "address",
          "name": "_owner",
          "type": "address"
        },
        {
          "internalType": "address",
          "name": "_operator",
          "type": "address"
        }
      ],
      "name": "isOperator",
      "outputs": [
        {
          "internalType": "bool",
          "name": "",
          "type": "bool"
        }
      ],
      "stateMutability": "view",
      "type": "function"
    },
    {
      "inputs": [
        {
          "internalType": "address",
          "name": "_otoken",
          "type": "address"
        }
      ],
      "name": "isSettlementAllowed",
      "outputs": [
        {
          "internalType": "bool",
          "name": "",
          "type": "bool"
        }
      ],
      "stateMutability": "view",
      "type": "function"
    },
    {
      "inputs": [
        {
          "components": [
            {
              "internalType": "enum Actions.ActionType",
              "name": "actionType",
              "type": "uint8"
            },
            {
              "internalType": "address",
              "name": "owner",
              "type": "address"
            },
            {
              "internalType": "address",
              "name": "secondAddress",
              "type": "address"
            },
            {
              "internalType": "address",
              "name": "asset",
              "type": "address"
            },
            {
              "internalType": "uint256",
              "name": "vaultId",
              "type": "uint256"
            },
            {
              "internalType": "uint256",
              "name": "amount",
              "type": "uint256"
            },
            {
              "internalType": "uint256",
              "name": "index",
              "type": "uint256"
            },
            {
              "internalType": "bytes",
              "name": "data",
              "type": "bytes"
            }
          ],
          "internalType": "struct Actions.ActionArgs[]",
          "name": "_actions",
          "type": "tuple[]"
        }
      ],
      "name": "operate",
      "outputs": [],
      "stateMutability": "nonpayable",
      "type": "function"
    },
    {
      "inputs": [],
      "name": "oracle",
      "outputs": [
        {
          "internalType": "contract OracleInterface",
          "name": "",
          "type": "address"
        }
      ],
      "stateMutability": "view",
      "type": "function"
    },
    {
      "inputs": [],
      "name": "owner",
      "outputs": [
        {
          "internalType": "address",
          "name": "",
          "type": "address"
        }
      ],
      "stateMutability": "view",
      "type": "function"
    },
    {
      "inputs": [],
      "name": "partialPauser",
      "outputs": [
        {
          "internalType": "address",
          "name": "",
          "type": "address"
        }
      ],
      "stateMutability": "view",
      "type": "function"
    },
    {
      "inputs": [],
      "name": "pool",
      "outputs": [
        {
          "internalType": "contract MarginPoolInterface",
          "name": "",
          "type": "address"
        }
      ],
      "stateMutability": "view",
      "type": "function"
    },
    {
      "inputs": [],
      "name": "refreshConfiguration",
      "outputs": [],
      "stateMutability": "nonpayable",
      "type": "function"
    },
    {
      "inputs": [],
      "name": "renounceOwnership",
      "outputs": [],
      "stateMutability": "nonpayable",
      "type": "function"
    },
    {
      "inputs": [
        {
          "internalType": "bool",
          "name": "_isRestricted",
          "type": "bool"
        }
      ],
      "name": "setCallRestriction",
      "outputs": [],
      "stateMutability": "nonpayable",
      "type": "function"
    },
    {
      "inputs": [
        {
          "internalType": "address",
          "name": "_fullPauser",
          "type": "address"
        }
      ],
      "name": "setFullPauser",
      "outputs": [],
      "stateMutability": "nonpayable",
      "type": "function"
    },
    {
      "inputs": [
        {
          "internalType": "address",
          "name": "_collateral",
          "type": "address"
        },
        {
          "internalType": "uint256",
          "name": "_cap",
          "type": "uint256"
        }
      ],
      "name": "setNakedCap",
      "outputs": [],
      "stateMutability": "nonpayable",
      "type": "function"
    },
    {
      "inputs": [
        {
          "internalType": "address",
          "name": "_operator",
          "type": "address"
        },
        {
          "internalType": "bool",
          "name": "_isOperator",
          "type": "bool"
        }
      ],
      "name": "setOperator",
      "outputs": [],
      "stateMutability": "nonpayable",
      "type": "function"
    },
    {
      "inputs": [
        {
          "internalType": "address",
          "name": "_partialPauser",
          "type": "address"
        }
      ],
      "name": "setPartialPauser",
      "outputs": [],
      "stateMutability": "nonpayable",
      "type": "function"
    },
    {
      "inputs": [
        {
          "internalType": "bool",
          "name": "_fullyPaused",
          "type": "bool"
        }
      ],
      "name": "setSystemFullyPaused",
      "outputs": [],
      "stateMutability": "nonpayable",
      "type": "function"
    },
    {
      "inputs": [
        {
          "internalType": "bool",
          "name": "_partiallyPaused",
          "type": "bool"
        }
      ],
      "name": "setSystemPartiallyPaused",
      "outputs": [],
      "stateMutability": "nonpayable",
      "type": "function"
    },
    {
      "inputs": [
        {
          "internalType": "address",
          "name": "_owner",
          "type": "address"
        },
        {
          "internalType": "uint256",
          "name": "_vaultId",
          "type": "uint256"
        }
      ],
      "name": "sync",
      "outputs": [],
      "stateMutability": "nonpayable",
      "type": "function"
    },
    {
      "inputs": [],
      "name": "systemFullyPaused",
      "outputs": [
        {
          "internalType": "bool",
          "name": "",
          "type": "bool"
        }
      ],
      "stateMutability": "view",
      "type": "function"
    },
    {
      "inputs": [],
      "name": "systemPartiallyPaused",
      "outputs": [
        {
          "internalType": "bool",
          "name": "",
          "type": "bool"
        }
      ],
      "stateMutability": "view",
      "type": "function"
    },
    {
      "inputs": [
        {
          "internalType": "address",
          "name": "newOwner",
          "type": "address"
        }
      ],
      "name": "transferOwnership",
      "outputs": [],
      "stateMutability": "nonpayable",
      "type": "function"
    },
    {
      "inputs": [],
      "name": "whitelist",
      "outputs": [
        {
          "internalType": "contract WhitelistInterface",
          "name": "",
          "type": "address"
        }
      ],
      "stateMutability": "view",
      "type": "function"
    }
  ],
  "transactionHash": "0x8233a43b6d5598846bf23619b62ff6b633b01de79c1a56ef6f286953c304ba61",
  "args": [],
  "numDeployments": 1,
  "solcInputHash": "e64f7796e753573a0d4471a5ea61f62d",
  "bytecode": "0x608060405234801561001057600080fd5b50615d8f80620000216000396000f3fe608060405234801561001057600080fd5b50600436106102325760003560e01c8063b617f0c611610130578063ce3e39c0116100b8578063eaa33e141161007c578063eaa33e1414610479578063eab7775b1461049b578063ef4fcafa146104a3578063f2fde38b146104b6578063f77bc88b146104c957610232565b8063ce3e39c014610418578063d66dd43e14610420578063d99d13f514610433578063e69d849d14610453578063e723406c1461046657610232565b8063c220101d116100ff578063c220101d146103c4578063c644d3a2146103d7578063caa6d21a146103ea578063cab2e805146103fd578063cdee058a1461041057610232565b8063b617f0c614610378578063b6363cf21461038b578063bc463a3d1461039e578063beca75d7146103b157610232565b80636bd50cef116101be5780638da5cb5b116101825780638da5cb5b1461032b57806393e59dc1146103335780639daafbe81461033b5780639db938911461035d5780639f677ed91461036557610232565b80636bd50cef146102f35780636c0c3b991461030b57806370dc320c14610313578063715018a61461031b5780637dc0d1d01461032357610232565b8063485cc95511610205578063485cc95514610292578063558a7297146102a5578063565eea19146102b8578063573c473e146102d857806364681083146102eb57610232565b806314b93faf1461023757806316f0115b1461026057806329729d88146102755780632eb1c3a71461027d575b600080fd5b61024a610245366004614e73565b6104dc565b60405161025791906153c0565b60405180910390f35b6102686104f3565b60405161025791906152f7565b610268610502565b61029061028b366004614f63565b610511565b005b6102906102a0366004614e3b565b6105c6565b6102906102b3366004614f36565b6106de565b6102cb6102c6366004614f63565b610797565b6040516102579190615cd5565b6102906102e63660046150f8565b610849565b610290610900565b6102fb61093f565b6040516102579493929190615374565b61024a610964565b610268610974565b610290610983565b610268610a02565b610268610a11565b610268610a21565b61034e610349366004614f63565b610a30565b60405161025793929190615c5d565b610268610cc9565b6102906103733660046150f8565b610cd8565b610290610386366004614fc2565b610d84565b61024a610399366004614e3b565b610e16565b6102906103ac366004614e03565b610e44565b6102906103bf366004614e03565b610f29565b6102cb6103d2366004614f63565b61100e565b6102cb6103e5366004614e03565b6110cf565b6102cb6103f8366004614e03565b6110ea565b61029061040b3660046150f8565b611105565b61024a6111bc565b6102686111cc565b6102cb61042e366004614e03565b6111db565b610446610441366004614f63565b6111f6565b6040516102579190615c28565b610290610461366004614f63565b611457565b61024a610474366004614e03565b611500565b61048c610487366004614f8e565b61152f565b604051610257939291906153cb565b61024a611556565b6102906104b1366004614f63565b611566565b6102906104c4366004614e03565b6115d9565b61024a6104d7366004614e03565b611690565b60006104ea8585858561170c565b95945050505050565b60cd546001600160a01b031681565b60cf546001600160a01b031681565b6105196118a1565b6065546001600160a01b0390811691161461054f5760405162461bcd60e51b8152600401610546906158a3565b60405180910390fd5b6000811161056f5760405162461bcd60e51b81526004016105469061575f565b6001600160a01b038216600081815260d5602052604090819020839055517f6ff730ba70e34bd5ca823424bd15ab869cadc6bad079b527c71bde444ad6402b906105ba908490615cd5565b60405180910390a25050565b600054610100900460ff16806105df57506105df6118a5565b806105ed575060005460ff16155b6106095760405162461bcd60e51b8152600401610546906158f5565b600054610100900460ff16158015610634576000805460ff1961ff0019909116610100171660011790555b6001600160a01b03831661065a5760405162461bcd60e51b81526004016105469061580c565b6001600160a01b0382166106805760405162461bcd60e51b815260040161054690615bd4565b610689826118ab565b610691611940565b60c980546001600160a01b0319166001600160a01b0385161790556106b46119d0565b60cf805460ff60b01b1916600160b01b17905580156106d9576000805461ff00191690555b505050565b33600090815260d2602090815260408083206001600160a01b038616845290915290205460ff16151581151514156107285760405162461bcd60e51b815260040161054690615af2565b33600081815260d2602090815260408083206001600160a01b038716808552925291829020805460ff191685151517905590519091907f1ae45540b0875932452da603b351ce2f1758258ba1345e79f8fc94f044cb07879061078b9085906153c0565b60405180910390a35050565b60cc54604051630478409360e41b8152600091610840916305f5e100916108349186916001600160a01b0316906347840930906107d8908a906004016152f7565b60206040518083038186803b1580156107f057600080fd5b505afa158015610804573d6000803e3d6000fd5b505050506040513d601f19601f820116820180604052508101906108289190615166565b9063ffffffff611c2b16565b9063ffffffff611c6516565b90505b92915050565b60ce546001600160a01b031633146108735760405162461bcd60e51b81526004016105469061553f565b60cf5460ff600160a01b90910416151581151514156108a45760405162461bcd60e51b815260040161054690615af2565b60cf805460ff60a01b1916600160a01b831515810291909117918290556040517f531c3d7229f510a8da00a0f5792686958cdd9c8a120c3c030a6053cd66b68556926108f59260ff910416906153c0565b60405180910390a150565b6109086118a1565b6065546001600160a01b039081169116146109355760405162461bcd60e51b8152600401610546906158a3565b61093d6119d0565b565b60ca5460cb5460cc5460cd546001600160a01b03938416949284169391821692911690565b60cf54600160b01b900460ff1681565b60c9546001600160a01b031681565b61098b6118a1565b6065546001600160a01b039081169116146109b85760405162461bcd60e51b8152600401610546906158a3565b6065546040516000916001600160a01b0316907f8be0079c531659141344cd1fd0a4f28419497f9722a3daafe3b4186f6b6457e0908390a3606580546001600160a01b0319169055565b60cb546001600160a01b031681565b6065546001600160a01b03165b90565b60ca546001600160a01b031681565b610a38614bb9565b6001600160a01b038316600081815260d160209081526040808320868452825280832084845260d3835281842087855283528184205494845260d483528184208785528352818420548251825460e09581028201860190945260c081018481529596879693959094929391928692849290918491840182828015610ae557602002820191906000526020600020905b81546001600160a01b03168152600190910190602001808311610ac7575b5050505050815260200160018201805480602002602001604051908101604052809291908181526020018280548015610b4757602002820191906000526020600020905b81546001600160a01b03168152600190910190602001808311610b29575b5050505050815260200160028201805480602002602001604051908101604052809291908181526020018280548015610ba957602002820191906000526020600020905b81546001600160a01b03168152600190910190602001808311610b8b575b5050505050815260200160038201805480602002602001604051908101604052809291908181526020018280548015610c0157602002820191906000526020600020905b815481526020019060010190808311610bed575b5050505050815260200160048201805480602002602001604051908101604052809291908181526020018280548015610c5957602002820191906000526020600020905b815481526020019060010190808311610c45575b5050505050815260200160058201805480602002602001604051908101604052809291908181526020018280548015610cb157602002820191906000526020600020905b815481526020019060010190808311610c9d575b50505050508152505092509250925092509250925092565b60ce546001600160a01b031681565b60cf546001600160a01b03163314610d025760405162461bcd60e51b81526004016105469061577c565b60cf5460ff600160a81b9091041615158115151415610d335760405162461bcd60e51b815260040161054690615af2565b60cf805460ff60a81b1916600160a81b831515810291909117918290556040517f4f1d0445688d95c99ca9fc036f551b205fd18ff26a4443b1979c16d1ba66b535926108f59260ff910416906153c0565b60975460ff16610da65760405162461bcd60e51b815260040161054690615b9d565b6097805460ff19169055610db8611ca7565b6000806000610dc684611cd1565b9250925092508215610e0357610ddc8282611f87565b6001600160a01b038216600090815260d46020908152604080832084845290915290204290555b50506097805460ff191660011790555050565b6001600160a01b03918216600090815260d26020908152604080832093909416825291909152205460ff1690565b610e4c6118a1565b6065546001600160a01b03908116911614610e795760405162461bcd60e51b8152600401610546906158a3565b6001600160a01b038116610e9f5760405162461bcd60e51b815260040161054690615679565b60ce546001600160a01b0382811691161415610ecd5760405162461bcd60e51b815260040161054690615af2565b60ce546040516001600160a01b038084169216907f1440312dbc326ddc21bfa95078324bf5aaf6899e8a27cba3057c60adfc84e40b90600090a360ce80546001600160a01b0319166001600160a01b0392909216919091179055565b610f316118a1565b6065546001600160a01b03908116911614610f5e5760405162461bcd60e51b8152600401610546906158a3565b6001600160a01b038116610f845760405162461bcd60e51b8152600401610546906155af565b60cf546001600160a01b0382811691161415610fb25760405162461bcd60e51b815260040161054690615af2565b60cf546040516001600160a01b038084169216907f44f3e9e7b454118e9fcb2e3026396f57ca21d7bd7dcabd31d7f986806422f4df90600090a360cf80546001600160a01b0319166001600160a01b0392909216919091179055565b6000611018614bb9565b60006110248585610a30565b5060cc5460405163cd43fbfb60e01b815292945090925060009182916001600160a01b03169063cd43fbfb906110609087908790600401615c3b565b604080518083038186803b15801561107757600080fd5b505afa15801561108b573d6000803e3d6000fd5b505050506040513d601f19601f820116820180604052508101906110af919061517e565b91509150806110c5576000945050505050610843565b5095945050505050565b6001600160a01b0316600090815260d5602052604090205490565b6001600160a01b0316600090815260d0602052604090205490565b61110d6118a1565b6065546001600160a01b0390811691161461113a5760405162461bcd60e51b8152600401610546906158a3565b60cf5460ff600160b01b909104161515811515141561116b5760405162461bcd60e51b815260040161054690615af2565b60cf805460ff60b01b1916600160b01b831515810291909117918290556040517f26d614575a4c104c181c87003d4bb00cc7ade00d5b47bf8775171c12a376b255926108f59260ff910416906153c0565b60cf54600160a01b900460ff1681565b60cc546001600160a01b031681565b6001600160a01b0316600090815260d6602052604090205490565b6111fe614bb9565b6001600160a01b038316600090815260d1602090815260408083208584528252918290208251815460e09381028201840190945260c08101848152909391928492849184018282801561127a57602002820191906000526020600020905b81546001600160a01b0316815260019091019060200180831161125c575b50505050508152602001600182018054806020026020016040519081016040528092919081815260200182805480156112dc57602002820191906000526020600020905b81546001600160a01b031681526001909101906020018083116112be575b505050505081526020016002820180548060200260200160405190810160405280929190818152602001828054801561133e57602002820191906000526020600020905b81546001600160a01b03168152600190910190602001808311611320575b505050505081526020016003820180548060200260200160405190810160405280929190818152602001828054801561139657602002820191906000526020600020905b815481526020019060010190808311611382575b50505050508152602001600482018054806020026020016040519081016040528092919081815260200182805480156113ee57602002820191906000526020600020905b8154815260200190600101908083116113da575b505050505081526020016005820180548060200260200160405190810160405280929190818152602001828054801561144657602002820191906000526020600020905b815481526020019060010190808311611432575b505050505081525050905092915050565b60cd5460405163dd2c99f760e01b81526001600160a01b039091169063dd2c99f79061148b90859033908690600401615350565b600060405180830381600087803b1580156114a557600080fd5b505af11580156114b9573d6000803e3d6000fd5b50505050816001600160a01b0316336001600160a01b03167f4dfff917e1fbb261a082e98cc7d43029621f6a6eb05ff3fef1510d5f1eb4857c8360405161078b9190615cd5565b60008060008060006115118661204d565b93509350935093506115258484848461170c565b9695505050505050565b6000806000806000806115438989896122b2565b919c909b50909950975050505050505050565b60cf54600160a81b900460ff1681565b60975460ff166115885760405162461bcd60e51b815260040161054690615b9d565b6097805460ff1916905561159a611ca7565b6115a48282611f87565b6001600160a01b03909116600090815260d460209081526040808320938352929052204290556097805460ff19166001179055565b6115e16118a1565b6065546001600160a01b0390811691161461160e5760405162461bcd60e51b8152600401610546906158a3565b6001600160a01b0381166116345760405162461bcd60e51b8152600401610546906154f9565b6065546040516001600160a01b038084169216907f8be0079c531659141344cd1fd0a4f28419497f9722a3daafe3b4186f6b6457e090600090a3606580546001600160a01b0319166001600160a01b0392909216919091179055565b6000816001600160a01b031663ade6e2aa6040518163ffffffff1660e01b815260040160206040518083038186803b1580156116cb57600080fd5b505afa1580156116df573d6000803e3d6000fd5b505050506040513d601f19601f820116820180604052508101906117039190615166565b42101592915050565b60cb54604051635fdc714960e01b81526000916001600160a01b031690635fdc71499061173f9088908690600401615337565b60206040518083038186803b15801561175757600080fd5b505afa15801561176b573d6000803e3d6000fd5b505050506040513d601f19601f8201168201806040525081019061178f9190615114565b8015611818575060cb54604051635fdc714960e01b81526001600160a01b0390911690635fdc7149906117c89087908690600401615337565b60206040518083038186803b1580156117e057600080fd5b505afa1580156117f4573d6000803e3d6000fd5b505050506040513d601f19601f820116820180604052508101906118189190615114565b80156104ea575060cb54604051635fdc714960e01b81526001600160a01b0390911690635fdc7149906118519086908690600401615337565b60206040518083038186803b15801561186957600080fd5b505afa15801561187d573d6000803e3d6000fd5b505050506040513d601f19601f820116820180604052508101906104ea9190615114565b3390565b303b1590565b600054610100900460ff16806118c457506118c46118a5565b806118d2575060005460ff16155b6118ee5760405162461bcd60e51b8152600401610546906158f5565b600054610100900460ff16158015611919576000805460ff1961ff0019909116610100171660011790555b61192161238d565b61192a8261240f565b801561193c576000805461ff00191690555b5050565b600054610100900460ff168061195957506119596118a5565b80611967575060005460ff16155b6119835760405162461bcd60e51b8152600401610546906158f5565b600054610100900460ff161580156119ae576000805460ff1961ff0019909116610100171660011790555b6097805460ff1916600117905580156119cd576000805461ff00191690555b50565b60c960009054906101000a90046001600160a01b03166001600160a01b031663d01f63f56040518163ffffffff1660e01b815260040160206040518083038186803b158015611a1e57600080fd5b505afa158015611a32573d6000803e3d6000fd5b505050506040513d601f19601f82011682018060405250810190611a569190614e1f565b60ca80546001600160a01b0319166001600160a01b0392831617905560c9546040805163419d8fe760e11b81529051919092169163833b1fce916004808301926020929190829003018186803b158015611aaf57600080fd5b505afa158015611ac3573d6000803e3d6000fd5b505050506040513d601f19601f82011682018060405250810190611ae79190614e1f565b60cb80546001600160a01b0319166001600160a01b0392831617905560c9546040805163cf28493f60e01b81529051919092169163cf28493f916004808301926020929190829003018186803b158015611b4057600080fd5b505afa158015611b54573d6000803e3d6000fd5b505050506040513d601f19601f82011682018060405250810190611b789190614e1f565b60cc80546001600160a01b0319166001600160a01b0392831617905560c95460408051633aa431a160e11b8152905191909216916375486342916004808301926020929190829003018186803b158015611bd157600080fd5b505afa158015611be5573d6000803e3d6000fd5b505050506040513d601f19601f82011682018060405250810190611c099190614e1f565b60cd80546001600160a01b0319166001600160a01b0392909216919091179055565b600082611c3a57506000610843565b82820282848281611c4757fe5b04146108405760405162461bcd60e51b815260040161054690615845565b600061084083836040518060400160405280601a81526020017f536166654d6174683a206469766973696f6e206279207a65726f0000000000008152506124db565b60cf54600160a81b900460ff161561093d5760405162461bcd60e51b815260040161054690615c0c565b60008080808080805b8751811015611f7b57611ceb614bef565b888281518110611cf757fe5b60209081029190910101518051909150600781600a811115611d1557fe5b14158015611d2f5750600881600a811115611d2c57fe5b14155b8015611d475750600a81600a811115611d4457fe5b14155b8015611d5f5750600981600a811115611d5c57fe5b14155b15611dd5578315611dc25781602001516001600160a01b0316866001600160a01b031614611d9f5760405162461bcd60e51b8152600401610546906157d2565b81608001518514611dc25760405162461bcd60e51b8152600401610546906155e9565b6001935081608001519450816020015195505b600081600a811115611de357fe5b1415611dff57611dfa611df583612512565b6125ea565b611f71565b600381600a811115611e0d57fe5b1415611e2457611dfa611e1f836126d9565b6127b5565b600481600a811115611e3257fe5b1415611e4957611dfa611e4483612b06565b612ba5565b600581600a811115611e5757fe5b1415611e6e57611dfa611e69836126d9565b612df9565b600681600a811115611e7c57fe5b1415611e9357611dfa611e8e83612b06565b613157565b600181600a811115611ea157fe5b1415611eb857611dfa611eb38361345b565b6134b9565b600281600a811115611ec657fe5b1415611edd57611dfa611ed8836137a1565b6137ff565b600881600a811115611eeb57fe5b1415611f0257611dfa611efd83613a98565b613b2a565b600781600a811115611f1057fe5b1415611f2757611dfa611f2283613d79565b613e41565b600a81600a811115611f3557fe5b1415611f4c57611dfa611f478361429e565b6143b8565b600981600a811115611f5a57fe5b1415611f7157611f71611f6c83614837565b6148bc565b5050600101611cda565b50969195509350915050565b611f8f614bb9565b6000611f9b8484610a30565b5060cc5460405163cd43fbfb60e01b81529294509092506000916001600160a01b039091169063cd43fbfb90611fd79086908690600401615c3b565b604080518083038186803b158015611fee57600080fd5b505afa158015612002573d6000803e3d6000fd5b505050506040513d601f19601f82011682018060405250810190612026919061517e565b915050806120465760405162461bcd60e51b815260040161054690615412565b5050505050565b6000806000806000859050806001600160a01b031663af0968fc6040518163ffffffff1660e01b815260040160c06040518083038186803b15801561209157600080fd5b505afa9250505080156120c1575060408051601f3d908101601f191682019092526120be91810190614ec3565b60015b61229757806001600160a01b031663aabaecd66040518163ffffffff1660e01b815260040160206040518083038186803b1580156120fe57600080fd5b505afa158015612112573d6000803e3d6000fd5b505050506040513d601f19601f820116820180604052508101906121369190614e1f565b816001600160a01b0316637158da7c6040518163ffffffff1660e01b815260040160206040518083038186803b15801561216f57600080fd5b505afa158015612183573d6000803e3d6000fd5b505050506040513d601f19601f820116820180604052508101906121a79190614e1f565b826001600160a01b03166317d69bc86040518163ffffffff1660e01b815260040160206040518083038186803b1580156121e057600080fd5b505afa1580156121f4573d6000803e3d6000fd5b505050506040513d601f19601f820116820180604052508101906122189190614e1f565b836001600160a01b031663ade6e2aa6040518163ffffffff1660e01b815260040160206040518083038186803b15801561225157600080fd5b505afa158015612265573d6000803e3d6000fd5b505050506040513d601f19601f820116820180604052508101906122899190615166565b9450945094509450506122ab565b5093985091965094509092506122ab915050565b9193509193565b6122ba614bb9565b60008060006122c7614bb9565b6000806122d48a8a610a30565b925092509250600080600060cc60009054906101000a90046001600160a01b03166001600160a01b031663a6c569078787878f6040518563ffffffff1660e01b81526004016123269493929190615c82565b60606040518083038186803b15801561233e57600080fd5b505afa158015612352573d6000803e3d6000fd5b505050506040513d601f19601f820116820180604052508101906123769190615130565b979f919e509c50959a509498505050505050505050565b600054610100900460ff16806123a657506123a66118a5565b806123b4575060005460ff16155b6123d05760405162461bcd60e51b8152600401610546906158f5565b600054610100900460ff161580156123fb576000805460ff1961ff0019909116610100171660011790555b80156119cd576000805461ff001916905550565b600054610100900460ff168061242857506124286118a5565b80612436575060005460ff16155b6124525760405162461bcd60e51b8152600401610546906158f5565b600054610100900460ff1615801561247d576000805460ff1961ff0019909116610100171660011790555b606580546001600160a01b0319166001600160a01b0384169081179091556040516000907f8be0079c531659141344cd1fd0a4f28419497f9722a3daafe3b4186f6b6457e0908290a3801561193c576000805461ff00191690555050565b600081836124fc5760405162461bcd60e51b815260040161054691906153e3565b50600083858161250857fe5b0495945050505050565b61251a614c50565b60008251600a81111561252957fe5b146125465760405162461bcd60e51b815260040161054690615623565b60208201516001600160a01b03166125705760405162461bcd60e51b8152600401610546906156b2565b60008260e00151516020141561259b578260e001518060200190518101906125989190615166565b90505b600281106125bb5760405162461bcd60e51b8152600401610546906154c0565b604080516060810182526020808601516001600160a01b03168252608090950151948101949094528301525090565b6125f26149af565b8051339061260082826149d9565b82516001600160a01b0316600090815260d0602052604081205461262b90600163ffffffff614a3a16565b9050808460200151146126505760405162461bcd60e51b8152600401610546906157b5565b83516001600160a01b03908116600090815260d060209081526040808320859055808801805189518616855260d384528285208786529093529281902091909155905186519151909291909116907f5d66689e2c864b4f21efd3988c0ce5dc8a197981b68e81ce73660e92394fe25f906126cb908590615cd5565b60405180910390a350505050565b6126e1614c7a565b60038251600a8111156126f057fe5b1480612708575060058251600a81111561270657fe5b145b6127245760405162461bcd60e51b8152600401610546906159f1565b60208201516001600160a01b031661274e5760405162461bcd60e51b815260040161054690615a0d565b6040518060c0016040528083602001516001600160a01b031681526020018360800151815260200183604001516001600160a01b0316815260200183606001516001600160a01b031681526020018360c0015181526020018360a001518152509050919050565b6127bd6149af565b805133906127cb82826149d9565b6127dd83600001518460200151614a5f565b6127f95760405162461bcd60e51b815260040161054690615725565b60408301516001600160a01b031633148061282d575082600001516001600160a01b031683604001516001600160a01b0316145b6128495760405162461bcd60e51b81526004016105469061555b565b60ca5460608401516040516302328d7360e31b81526001600160a01b03909216916311946b989161287c916004016152f7565b60206040518083038186803b15801561289457600080fd5b505afa1580156128a8573d6000803e3d6000fd5b505050506040513d601f19601f820116820180604052508101906128cc9190615114565b6128e85760405162461bcd60e51b815260040161054690615b63565b600083606001519050806001600160a01b031663ade6e2aa6040518163ffffffff1660e01b815260040160206040518083038186803b15801561292a57600080fd5b505afa15801561293e573d6000803e3d6000fd5b505050506040513d601f19601f820116820180604052508101906129629190615166565b42106129805760405162461bcd60e51b8152600401610546906156ce565b83516001600160a01b0316600090815260d16020908152604080832082880151845290915290819020606086015160a08701516080880151935163155bf27360e31b8152736a5862B765e44C5Ed430C2fa7e84CA4ADd5861A59463aadf9398946129f39490939092909190600401615cb1565b60006040518083038186803b158015612a0b57600080fd5b505af4158015612a1f573d6000803e3d6000fd5b505060cd54606087015160408089015160a08a0151915163dd2c99f760e01b81526001600160a01b03909416955063dd2c99f79450612a6393909190600401615350565b600060405180830381600087803b158015612a7d57600080fd5b505af1158015612a91573d6000803e3d6000fd5b5050505083604001516001600160a01b031684600001516001600160a01b031685606001516001600160a01b03167f2607e210004cef0ad6b3e6aedb778bffb03c1586f8dcf55d49afffde210d8bb187602001518860a00151604051612af8929190615cde565b60405180910390a450505050565b612b0e614c7a565b60048251600a811115612b1d57fe5b1480612b35575060068251600a811115612b3357fe5b145b612b515760405162461bcd60e51b8152600401610546906158d8565b60208201516001600160a01b0316612b7b5760405162461bcd60e51b815260040161054690615469565b60408201516001600160a01b031661274e5760405162461bcd60e51b815260040161054690615960565b612bad6149af565b80513390612bbb82826149d9565b612bcd83600001518460200151614a5f565b612be95760405162461bcd60e51b815260040161054690615725565b600083606001519050806001600160a01b031663ade6e2aa6040518163ffffffff1660e01b815260040160206040518083038186803b158015612c2b57600080fd5b505afa158015612c3f573d6000803e3d6000fd5b505050506040513d601f19601f82011682018060405250810190612c639190615166565b4210612c815760405162461bcd60e51b815260040161054690615a7f565b83516001600160a01b0316600090815260d16020908152604080832082880151845290915290819020606086015160a08701516080880151935163951dd8d360e01b8152736a5862B765e44C5Ed430C2fa7e84CA4ADd5861A59463951dd8d394612cf49490939092909190600401615cb1565b60006040518083038186803b158015612d0c57600080fd5b505af4158015612d20573d6000803e3d6000fd5b505060cd54606087015160408089015160a08a0151915163fa93b2a560e01b81526001600160a01b03909416955063fa93b2a59450612d6493909190600401615350565b600060405180830381600087803b158015612d7e57600080fd5b505af1158015612d92573d6000803e3d6000fd5b5050505083604001516001600160a01b031684600001516001600160a01b031685606001516001600160a01b03167fbd023c53d293da163d185720d4274f4ddabc09d5304491a55abb296cc811d9fa87602001518860a00151604051612af8929190615cde565b612e016149af565b80513390612e0f82826149d9565b612e2183600001518460200151614a5f565b612e3d5760405162461bcd60e51b815260040161054690615725565b60408301516001600160a01b0316331480612e71575082600001516001600160a01b031683604001516001600160a01b0316145b612e8d5760405162461bcd60e51b81526004016105469061542f565b60ca54606084015160405163f9839d8960e01b81526001600160a01b039092169163f9839d8991612ec0916004016152f7565b60206040518083038186803b158015612ed857600080fd5b505afa158015612eec573d6000803e3d6000fd5b505050506040513d601f19601f82011682018060405250810190612f109190615114565b612f2c5760405162461bcd60e51b815260040161054690615708565b6000612f4084600001518560200151610a30565b509150508060011415612fdf5760a084015160608501516001600160a01b0316600090815260d66020526040902054612f7e9163ffffffff614a3a16565b6060850180516001600160a01b03908116600090815260d6602081815260408084209690965584518416835260d58152858320549451909316825290915291909120541115612fdf5760405162461bcd60e51b815260040161054690615886565b83516001600160a01b0316600090815260d16020908152604080832082880151845290915290819020606086015160a0870151608088015193516301f974ab60e61b8152736a5862B765e44C5Ed430C2fa7e84CA4ADd5861A594637e5d2ac0946130529490939092909190600401615cb1565b60006040518083038186803b15801561306a57600080fd5b505af415801561307e573d6000803e3d6000fd5b505060cd54606087015160408089015160a08a0151915163dd2c99f760e01b81526001600160a01b03909416955063dd2c99f794506130c293909190600401615350565b600060405180830381600087803b1580156130dc57600080fd5b505af11580156130f0573d6000803e3d6000fd5b5050505083604001516001600160a01b031684600001516001600160a01b031685606001516001600160a01b03167fbfab88b861f171b7db714f00e5966131253918d55ddba816c3eb94657d10239087602001518860a00151604051612af8929190615cde565b61315f6149af565b8051339061316d82826149d9565b61317f83600001518460200151614a5f565b61319b5760405162461bcd60e51b815260040161054690615725565b6131a3614bb9565b60006131b785600001518660200151610a30565b50915091506131c98260000151614a8c565b1561327c57600082600001516000815181106131e157fe5b60200260200101519050806001600160a01b031663ade6e2aa6040518163ffffffff1660e01b815260040160206040518083038186803b15801561322457600080fd5b505afa158015613238573d6000803e3d6000fd5b505050506040513d601f19601f8201168201806040525081019061325c9190615166565b421061327a5760405162461bcd60e51b815260040161054690615943565b505b80600114156132d45760a085015160608601516001600160a01b0316600090815260d660205260409020546132b69163ffffffff614aca16565b60608601516001600160a01b0316600090815260d660205260409020555b84516001600160a01b0316600090815260d16020908152604080832082890151845290915290819020606087015160a088015160808901519351630380bfdd60e61b8152736a5862B765e44C5Ed430C2fa7e84CA4ADd5861A59463e02ff740946133479490939092909190600401615cb1565b60006040518083038186803b15801561335f57600080fd5b505af4158015613373573d6000803e3d6000fd5b505060cd5460608801516040808a015160a08b0151915163fa93b2a560e01b81526001600160a01b03909416955063fa93b2a594506133b793909190600401615350565b600060405180830381600087803b1580156133d157600080fd5b505af11580156133e5573d6000803e3d6000fd5b5050505084604001516001600160a01b031685600001516001600160a01b031686606001516001600160a01b03167ffe86f7694b6c54a528acbe27be61dd4a85e9a89aeef7f650a1b439045ccee5a488602001518960a0015160405161344c929190615cde565b60405180910390a45050505050565b613463614c7a565b60018251600a81111561347257fe5b1461348f5760405162461bcd60e51b815260040161054690615b0e565b60208201516001600160a01b031661274e5760405162461bcd60e51b815260040161054690615b47565b6134c16149af565b805133906134cf82826149d9565b6134e183600001518460200151614a5f565b6134fd5760405162461bcd60e51b815260040161054690615725565b60ca5460608401516040516302328d7360e31b81526001600160a01b03909216916311946b9891613530916004016152f7565b60206040518083038186803b15801561354857600080fd5b505afa15801561355c573d6000803e3d6000fd5b505050506040513d601f19601f820116820180604052508101906135809190615114565b61359c5760405162461bcd60e51b81526004016105469061563f565b600083606001519050806001600160a01b031663ade6e2aa6040518163ffffffff1660e01b815260040160206040518083038186803b1580156135de57600080fd5b505afa1580156135f2573d6000803e3d6000fd5b505050506040513d601f19601f820116820180604052508101906136169190615166565b42106136345760405162461bcd60e51b815260040161054690615828565b83516001600160a01b0316600090815260d16020908152604080832082880151845290915290819020606086015160a08701516080880151935163ef682c1b60e01b8152736a5862B765e44C5Ed430C2fa7e84CA4ADd5861A59463ef682c1b946136a79490939092909190600401615cb1565b60006040518083038186803b1580156136bf57600080fd5b505af41580156136d3573d6000803e3d6000fd5b50505060408086015160a0870151915163051b0a4160e41b81526001600160a01b03851693506351b0a4109261370c9291600401615337565b600060405180830381600087803b15801561372657600080fd5b505af115801561373a573d6000803e3d6000fd5b5050505083604001516001600160a01b031684600001516001600160a01b031685606001516001600160a01b03167f4d7f96086c92b2f9a254ad21548b1c1f2d99502c7949508866349b96bb1a8d8a87602001518860a00151604051612af8929190615cde565b6137a9614c7a565b60028251600a8111156137b857fe5b146137d55760405162461bcd60e51b815260040161054690615a46565b60208201516001600160a01b031661274e5760405162461bcd60e51b815260040161054690615696565b6138076149af565b8051339061381582826149d9565b61382783600001518460200151614a5f565b6138435760405162461bcd60e51b815260040161054690615725565b60408301516001600160a01b0316331480613877575082600001516001600160a01b031683604001516001600160a01b0316145b6138935760405162461bcd60e51b81526004016105469061565c565b600083606001519050806001600160a01b031663ade6e2aa6040518163ffffffff1660e01b815260040160206040518083038186803b1580156138d557600080fd5b505afa1580156138e9573d6000803e3d6000fd5b505050506040513d601f19601f8201168201806040525081019061390d9190615166565b421061392b5760405162461bcd60e51b8152600401610546906154a3565b83516001600160a01b0316600090815260d16020908152604080832082880151845290915290819020606086015160a087015160808801519351637b5c283560e01b8152736a5862B765e44C5Ed430C2fa7e84CA4ADd5861A594637b5c28359461399e9490939092909190600401615cb1565b60006040518083038186803b1580156139b657600080fd5b505af41580156139ca573d6000803e3d6000fd5b50505060408086015160a087015191516356d878f760e01b81526001600160a01b03851693506356d878f792613a039291600401615337565b600060405180830381600087803b158015613a1d57600080fd5b505af1158015613a31573d6000803e3d6000fd5b5050505083604001516001600160a01b031684600001516001600160a01b031685606001516001600160a01b03167fdd96b18f26fd9950581b9fd821fa907fc318845fc4d220b825a7b19bfdd174e887602001518860a00151604051612af8929190615cde565b613aa0614ccb565b60088251600a811115613aaf57fe5b14613acc5760405162461bcd60e51b815260040161054690615b2a565b60408201516001600160a01b0316613af65760405162461bcd60e51b815260040161054690615742565b506040805160608082018352838301516001600160a01b0390811683529084015116602082015260a0909201519082015290565b602081015160ca546040516302328d7360e31b81526001600160a01b03909116906311946b9890613b5f9084906004016152f7565b60206040518083038186803b158015613b7757600080fd5b505afa158015613b8b573d6000803e3d6000fd5b505050506040513d601f19601f82011682018060405250810190613baf9190615114565b613bcb5760405162461bcd60e51b815260040161054690615b80565b600080600080613bda8561204d565b935093509350935080421015613c025760405162461bcd60e51b815260040161054690615a29565b613c0e8383868461170c565b613c2a5760405162461bcd60e51b81526004016105469061597d565b6000613c3e87602001518860400151610797565b9050856001600160a01b03166356d878f73389604001516040518363ffffffff1660e01b8152600401613c72929190615337565b600060405180830381600087803b158015613c8c57600080fd5b505af1158015613ca0573d6000803e3d6000fd5b505060cd54895160405163fa93b2a560e01b81526001600160a01b03909216935063fa93b2a59250613cd9918991908690600401615350565b600060405180830381600087803b158015613cf357600080fd5b505af1158015613d07573d6000803e3d6000fd5b5050505086600001516001600160a01b0316336001600160a01b031688602001516001600160a01b03167f18fd144d7dbcbaa6f00fd47a84adc7dc3cc64a326ffa2dc7691a25e3837dba03888b6040015186604051613d689392919061539f565b60405180910390a450505050505050565b613d81614ccb565b60078251600a811115613d9057fe5b14613dad5760405162461bcd60e51b8152600401610546906159d4565b60208201516001600160a01b0316613dd75760405162461bcd60e51b8152600401610546906154dc565b60408201516001600160a01b0316613e015760405162461bcd60e51b815260040161054690615a9c565b604051806060016040528083602001516001600160a01b031681526020018360800151815260200183604001516001600160a01b03168152509050919050565b80513390613e4f82826149d9565b613e6183600001518460200151614a5f565b613e7d5760405162461bcd60e51b815260040161054690615725565b613e85614bb9565b6000613e9985600001518660200151610a30565b5091509150600080613eae8460000151614a8c565b90506000613ebf8560200151614a8c565b90508180613eca5750805b613ee65760405162461bcd60e51b81526004016105469061599a565b81613f09578460200151600081518110613efc57fe5b6020026020010151613f1f565b84518051600090613f1657fe5b60200260200101515b92508015613fd35760008560200151600081518110613f3a57fe5b60200260200101519050806001600160a01b03166356d878f760cd60009054906101000a90046001600160a01b03168860800151600081518110613f7a57fe5b60200260200101516040518363ffffffff1660e01b8152600401613f9f929190615337565b600060405180830381600087803b158015613fb957600080fd5b505af1158015613fcd573d6000803e3d6000fd5b50505050505b5050600080600080613fe48561204d565b93509350935093508042101561400c5760405162461bcd60e51b8152600401610546906156eb565b6140188383868461170c565b6140345760405162461bcd60e51b81526004016105469061597d565b60cc5460405163cd43fbfb60e01b815260009182916001600160a01b039091169063cd43fbfb9061406b908c908c90600401615c3b565b604080518083038186803b15801561408257600080fd5b505afa158015614096573d6000803e3d6000fd5b505050506040513d601f19601f820116820180604052508101906140ba919061517e565b91509150806140db5760405162461bcd60e51b815260040161054690615606565b60d160008d600001516001600160a01b03166001600160a01b0316815260200190815260200160002060008d6020015181526020019081526020016000206000808201600061412a9190614ceb565b614138600183016000614ceb565b614146600283016000614ceb565b614154600383016000614ceb565b614162600483016000614ceb565b614170600583016000614ceb565b505087600114156141be576001600160a01b038616600090815260d660205260409020546141a4908363ffffffff614aca16565b6001600160a01b038716600090815260d660205260409020555b60cd546040808e0151905163fa93b2a560e01b81526001600160a01b039092169163fa93b2a5916141f6918a91908790600401615350565b600060405180830381600087803b15801561421057600080fd5b505af1158015614224573d6000803e3d6000fd5b5050505060008c60200151905060008d60400151905089896001600160a01b03168f600001516001600160a01b03167f522cda7dd0677ee4c9512efd8aa92af93de64b4c2fe2f8bfe7a9234a655a9bf58488876040516142869392919061539f565b60405180910390a45050505050505050505050505050565b6142a6614d09565b600a8251600a8111156142b557fe5b146142d25760405162461bcd60e51b81526004016105469061544c565b60208201516001600160a01b03166142fc5760405162461bcd60e51b8152600401610546906155cc565b60408201516001600160a01b03166143265760405162461bcd60e51b815260040161054690615486565b8160e001515160201461434b5760405162461bcd60e51b815260040161054690615a62565b60008260e001518060200190518101906143659190615166565b90506040518060a0016040528084602001516001600160a01b0316815260200184604001516001600160a01b03168152602001846080015181526020018460a00151815260200182815250915050919050565b6143c06149af565b6143d281600001518260400151614a5f565b6143ee5760405162461bcd60e51b815260040161054690615725565b6143f6614bb9565b60008060006144128560000151866040015187608001516122b2565b9350935093509350826144375760405162461bcd60e51b815260040161054690615ab9565b60006144586305f5e100610834858960600151611c2b90919063ffffffff16565b9050600061448b8760600151876060015160008151811061447557fe5b6020026020010151614aca90919063ffffffff16565b11156144c557816144a7828760a0015160008151811061447557fe5b10156144c55760405162461bcd60e51b815260040161054690615798565b845180516000906144d257fe5b60200260200101516001600160a01b03166356d878f73388606001516040518363ffffffff1660e01b815260040161450b929190615337565b600060405180830381600087803b15801561452557600080fd5b505af1158015614539573d6000803e3d6000fd5b505087516001600160a01b0316600090815260d160209081526040808320818c01518452909152808220908901518051736a5862B765e44C5Ed430C2fa7e84CA4ADd5861A5955063e02ff74094509192909161459157fe5b60200260200101518460006040518563ffffffff1660e01b81526004016145bb9493929190615cb1565b60006040518083038186803b1580156145d357600080fd5b505af41580156145e7573d6000803e3d6000fd5b505087516001600160a01b0316600090815260d160209081526040808320818c01518452909152812088518051736a5862B765e44C5Ed430C2fa7e84CA4ADd5861A59550637b5c283594509192909161463c57fe5b6020026020010151896060015160006040518563ffffffff1660e01b815260040161466a9493929190615cb1565b60006040518083038186803b15801561468257600080fd5b505af4158015614696573d6000803e3d6000fd5b505050506146ea8160d6600088604001516000815181106146b357fe5b60200260200101516001600160a01b03166001600160a01b0316815260200190815260200160002054614aca90919063ffffffff16565b60d6600087604001516000815181106146ff57fe5b60200260200101516001600160a01b03166001600160a01b031681526020019081526020016000208190555060cd60009054906101000a90046001600160a01b03166001600160a01b031663fa93b2a5866040015160008151811061476057fe5b60200260200101518860200151846040518463ffffffff1660e01b815260040161478c93929190615350565b600060405180830381600087803b1580156147a657600080fd5b505af11580156147ba573d6000803e3d6000fd5b5050505085600001516001600160a01b031686602001516001600160a01b0316336001600160a01b03167f93e59ec97820bb1ed9fb6ddc10619d1574e803b1f79b937414feb8f6b7051f9d868a60800151868c606001518d60400151604051614827959493929190615cec565b60405180910390a4505050505050565b61483f614d4a565b60098251600a81111561484e57fe5b1461486b5760405162461bcd60e51b8152600401610546906157ef565b60408201516001600160a01b03166148955760405162461bcd60e51b8152600401610546906159b7565b50604080518082018252908201516001600160a01b0316815260e090910151602082015290565b6148c46149af565b805160cf54600160b01b900460ff16156148fd576148e181614b0c565b6148fd5760405162461bcd60e51b815260040161054690615bf0565b815160208301516040516309c23da560e41b81526001600160a01b0390921691639c23da50916149329133919060040161530b565b600060405180830381600087803b15801561494c57600080fd5b505af1158015614960573d6000803e3d6000fd5b5050505081600001516001600160a01b0316336001600160a01b03167f8750bdaf6e88201790ee2765fea3ac73b514a52658c818723a30de91029ad000846020015160405161078b91906153e3565b60cf54600160a01b900460ff161561093d5760405162461bcd60e51b815260040161054690615ad6565b806001600160a01b0316826001600160a01b03161480614a1e57506001600160a01b03808216600090815260d2602090815260408083209386168352929052205460ff165b61193c5760405162461bcd60e51b8152600401610546906153f6565b6000828201838110156108405760405162461bcd60e51b815260040161054690615578565b600080821180156108405750506001600160a01b0391909116600090815260d06020526040902054101590565b6000808251118015610843575060006001600160a01b031682600081518110614ab157fe5b60200260200101516001600160a01b0316141592915050565b600061084083836040518060400160405280601e81526020017f536166654d6174683a207375627472616374696f6e206f766572666c6f770000815250614b8d565b60ca546040516351572a2d60e11b81526000916001600160a01b03169063a2ae545a90614b3d9085906004016152f7565b60206040518083038186803b158015614b5557600080fd5b505afa158015614b69573d6000803e3d6000fd5b505050506040513d601f19601f820116820180604052508101906108439190615114565b60008184841115614bb15760405162461bcd60e51b815260040161054691906153e3565b505050900390565b6040518060c001604052806060815260200160608152602001606081526020016060815260200160608152602001606081525090565b604080516101008101909152806000815260200160006001600160a01b0316815260200160006001600160a01b0316815260200160006001600160a01b03168152602001600081526020016000815260200160008152602001606081525090565b604051806060016040528060006001600160a01b0316815260200160008152602001600081525090565b6040518060c0016040528060006001600160a01b031681526020016000815260200160006001600160a01b0316815260200160006001600160a01b0316815260200160008152602001600081525090565b604080516060810182526000808252602082018190529181019190915290565b50805460008255906000526020600020908101906119cd9190614d62565b6040518060a0016040528060006001600160a01b0316815260200160006001600160a01b031681526020016000815260200160008152602001600081525090565b60408051808201909152600081526060602082015290565b610a1e91905b80821115614d7c5760008155600101614d68565b5090565b803561084381615d36565b600082601f830112614d9b578081fd5b813567ffffffffffffffff811115614db1578182fd5b614dc4601f8201601f1916602001615d0f565b9150808252836020828501011115614ddb57600080fd5b8060208401602084013760009082016020015292915050565b8035600b811061084357600080fd5b600060208284031215614e14578081fd5b813561084081615d36565b600060208284031215614e30578081fd5b815161084081615d36565b60008060408385031215614e4d578081fd5b8235614e5881615d36565b91506020830135614e6881615d36565b809150509250929050565b60008060008060808587031215614e88578182fd5b8435614e9381615d36565b93506020850135614ea381615d36565b92506040850135614eb381615d36565b9396929550929360600135925050565b60008060008060008060c08789031215614edb578182fd5b8651614ee681615d36565b6020880151909650614ef781615d36565b6040880151909550614f0881615d36565b80945050606087015192506080870151915060a0870151614f2881615d4b565b809150509295509295509295565b60008060408385031215614f48578182fd5b8235614f5381615d36565b91506020830135614e6881615d4b565b60008060408385031215614f75578182fd5b8235614f8081615d36565b946020939093013593505050565b600080600060608486031215614fa2578283fd5b8335614fad81615d36565b95602085013595506040909401359392505050565b60006020808385031215614fd4578182fd5b823567ffffffffffffffff80821115614feb578384fd5b81850186601f820112614ffc578485fd5b803592508183111561500c578485fd5b6150198485850201615d0f565b83815284810190828601875b868110156150e9578135850161010080601f19838f03011215615046578a8bfd5b61504f81615d0f565b61505b8e8c8501614df4565b815261506a8e60408501614d80565b8b820152606061507c8f828601614d80565b604083015261508e8f60808601614d80565b818301525060a0830135608082015260c083013560a082015260e083013560c082015281830135898111156150c1578c8dfd5b6150cf8f8d83870101614d8b565b60e083015250865250509287019290870190600101615025565b50909998505050505050505050565b600060208284031215615109578081fd5b813561084081615d4b565b600060208284031215615125578081fd5b815161084081615d4b565b600080600060608486031215615144578081fd5b835161514f81615d4b565b602085015160409095015190969495509392505050565b600060208284031215615177578081fd5b5051919050565b60008060408385031215615190578182fd5b825191506020830151614e6881615d4b565b6000815180845260208085019450808401835b838110156151da5781516001600160a01b0316875295820195908201906001016151b5565b509495945050505050565b6000815180845260208085019450808401835b838110156151da578151875295820195908201906001016151f8565b60008151808452815b818110156152395760208185018101518683018201520161521d565b8181111561524a5782602083870101525b50601f01601f19169290920160200192915050565b6000815160c0845261527460c08501826151a2565b60208401519150848103602086015261528d81836151a2565b6040850151925085810360408701526152a681846151a2565b9150506060840151915084810360608601526152c281836151e5565b6080850151925085810360808701526152db81846151e5565b91505060a0840151915084810360a08601526104ea81836151e5565b6001600160a01b0391909116815260200190565b6001600160a01b038316815260406020820181905260009061532f90830184615214565b949350505050565b6001600160a01b03929092168252602082015260400190565b6001600160a01b039384168152919092166020820152604081019190915260600190565b6001600160a01b03948516815292841660208401529083166040830152909116606082015260800190565b6001600160a01b039390931683526020830191909152604082015260600190565b901515815260200190565b92151583526020830191909152604082015260600190565b6000602082526108406020830184615214565b602080825260029082015261219b60f11b604082015260600190565b60208082526003908201526210cc4d60ea1b604082015260600190565b60208082526003908201526204332360ec1b604082015260600190565b60208082526003908201526208262760eb1b604082015260600190565b60208082526003908201526241313160e81b604082015260600190565b60208082526003908201526204132360ec1b604082015260600190565b60208082526003908201526221991b60e91b604082015260600190565b602080825260029082015261413360f01b604082015260600190565b60208082526003908201526220989b60e91b604082015260600190565b60208082526026908201527f4f776e61626c653a206e6577206f776e657220697320746865207a65726f206160408201526564647265737360d01b606082015260800190565b602080825260029082015261219960f11b604082015260600190565b60208082526003908201526221989b60e91b604082015260600190565b6020808252601b908201527f536166654d6174683a206164646974696f6e206f766572666c6f770000000000604082015260600190565b60208082526003908201526204331360ec1b604082015260600190565b60208082526003908201526241313960e81b604082015260600190565b60208082526003908201526243313360e81b604082015260600190565b60208082526003908201526221999960e91b604082015260600190565b602080825260029082015261413160f01b604082015260600190565b60208082526003908201526243323360e81b604082015260600190565b60208082526003908201526243323560e81b604082015260600190565b60208082526003908201526243313160e81b604082015260600190565b602080825260029082015261413760f01b604082015260600190565b602080825260029082015261209960f11b604082015260600190565b60208082526003908201526208662760eb1b604082015260600190565b60208082526003908201526243333160e81b604082015260600190565b60208082526003908201526243323160e81b604082015260600190565b60208082526003908201526243333560e81b604082015260600190565b602080825260039082015262104c4d60ea1b604082015260600190565b60208082526003908201526221999b60e91b604082015260600190565b602080825260029082015261433160f01b604082015260600190565b60208082526003908201526210cccd60ea1b604082015260600190565b60208082526003908201526243313560e81b604082015260600190565b60208082526003908201526221989960e91b604082015260600190565b60208082526003908201526220991960e91b604082015260600190565b602080825260029082015261433760f01b604082015260600190565b60208082526003908201526210cc8d60ea1b604082015260600190565b60208082526021908201527f536166654d6174683a206d756c7469706c69636174696f6e206f766572666c6f6040820152607760f81b606082015260800190565b60208082526003908201526243333760e81b604082015260600190565b6020808252818101527f4f776e61626c653a2063616c6c6572206973206e6f7420746865206f776e6572604082015260600190565b60208082526003908201526204131360ec1b604082015260600190565b6020808252602e908201527f436f6e747261637420696e7374616e63652068617320616c726561647920626560408201526d195b881a5b9a5d1a585b1a5e995960921b606082015260800190565b60208082526003908201526221991960e91b604082015260600190565b60208082526003908201526220989960e91b604082015260600190565b60208082526003908201526243323960e81b604082015260600190565b60208082526003908201526204333360ec1b604082015260600190565b60208082526003908201526241323360e81b604082015260600190565b60208082526003908201526241313560e81b604082015260600190565b602080825260029082015261082760f31b604082015260600190565b602080825260029082015261413960f01b604082015260600190565b60208082526003908201526208664760eb1b604082015260600190565b602080825260029082015261209b60f11b604082015260600190565b60208082526003908201526241323160e81b604082015260600190565b60208082526003908201526243313960e81b604082015260600190565b60208082526003908201526241313760e81b604082015260600190565b60208082526003908201526243333360e81b604082015260600190565b60208082526002908201526110cd60f21b604082015260600190565b602080825260029082015261433960f01b604082015260600190565b602080825260029082015261104d60f21b604082015260600190565b60208082526003908201526241313360e81b604082015260600190565b602080825260029082015261413560f01b604082015260600190565b60208082526003908201526243313760e81b604082015260600190565b60208082526003908201526243323760e81b604082015260600190565b6020808252601f908201527f5265656e7472616e637947756172643a207265656e7472616e742063616c6c00604082015260600190565b602080825260029082015261086760f31b604082015260600190565b602080825260029082015261433360f01b604082015260600190565b602080825260029082015261433560f01b604082015260600190565b600060208252610840602083018461525f565b600060408252615c4e604083018561525f565b90508260208301529392505050565b600060608252615c70606083018661525f565b60208301949094525060400152919050565b600060808252615c95608083018761525f565b6020830195909552506040810192909252606090910152919050565b9384526001600160a01b039290921660208401526040830152606082015260800190565b90815260200190565b918252602082015260400190565b948552602085019390935260408401919091526060830152608082015260a00190565b60405181810167ffffffffffffffff81118282101715615d2e57600080fd5b604052919050565b6001600160a01b03811681146119cd57600080fd5b80151581146119cd57600080fdfea26469706673582212201280e8fa097a8a30dbbcfd0c81c7ae5b98d2d17dd854ce3eb7abcd1efe08c54664736f6c634300060a0033",
  "deployedBytecode": "0x608060405234801561001057600080fd5b50600436106102325760003560e01c8063b617f0c611610130578063ce3e39c0116100b8578063eaa33e141161007c578063eaa33e1414610479578063eab7775b1461049b578063ef4fcafa146104a3578063f2fde38b146104b6578063f77bc88b146104c957610232565b8063ce3e39c014610418578063d66dd43e14610420578063d99d13f514610433578063e69d849d14610453578063e723406c1461046657610232565b8063c220101d116100ff578063c220101d146103c4578063c644d3a2146103d7578063caa6d21a146103ea578063cab2e805146103fd578063cdee058a1461041057610232565b8063b617f0c614610378578063b6363cf21461038b578063bc463a3d1461039e578063beca75d7146103b157610232565b80636bd50cef116101be5780638da5cb5b116101825780638da5cb5b1461032b57806393e59dc1146103335780639daafbe81461033b5780639db938911461035d5780639f677ed91461036557610232565b80636bd50cef146102f35780636c0c3b991461030b57806370dc320c14610313578063715018a61461031b5780637dc0d1d01461032357610232565b8063485cc95511610205578063485cc95514610292578063558a7297146102a5578063565eea19146102b8578063573c473e146102d857806364681083146102eb57610232565b806314b93faf1461023757806316f0115b1461026057806329729d88146102755780632eb1c3a71461027d575b600080fd5b61024a610245366004614e73565b6104dc565b60405161025791906153c0565b60405180910390f35b6102686104f3565b60405161025791906152f7565b610268610502565b61029061028b366004614f63565b610511565b005b6102906102a0366004614e3b565b6105c6565b6102906102b3366004614f36565b6106de565b6102cb6102c6366004614f63565b610797565b6040516102579190615cd5565b6102906102e63660046150f8565b610849565b610290610900565b6102fb61093f565b6040516102579493929190615374565b61024a610964565b610268610974565b610290610983565b610268610a02565b610268610a11565b610268610a21565b61034e610349366004614f63565b610a30565b60405161025793929190615c5d565b610268610cc9565b6102906103733660046150f8565b610cd8565b610290610386366004614fc2565b610d84565b61024a610399366004614e3b565b610e16565b6102906103ac366004614e03565b610e44565b6102906103bf366004614e03565b610f29565b6102cb6103d2366004614f63565b61100e565b6102cb6103e5366004614e03565b6110cf565b6102cb6103f8366004614e03565b6110ea565b61029061040b3660046150f8565b611105565b61024a6111bc565b6102686111cc565b6102cb61042e366004614e03565b6111db565b610446610441366004614f63565b6111f6565b6040516102579190615c28565b610290610461366004614f63565b611457565b61024a610474366004614e03565b611500565b61048c610487366004614f8e565b61152f565b604051610257939291906153cb565b61024a611556565b6102906104b1366004614f63565b611566565b6102906104c4366004614e03565b6115d9565b61024a6104d7366004614e03565b611690565b60006104ea8585858561170c565b95945050505050565b60cd546001600160a01b031681565b60cf546001600160a01b031681565b6105196118a1565b6065546001600160a01b0390811691161461054f5760405162461bcd60e51b8152600401610546906158a3565b60405180910390fd5b6000811161056f5760405162461bcd60e51b81526004016105469061575f565b6001600160a01b038216600081815260d5602052604090819020839055517f6ff730ba70e34bd5ca823424bd15ab869cadc6bad079b527c71bde444ad6402b906105ba908490615cd5565b60405180910390a25050565b600054610100900460ff16806105df57506105df6118a5565b806105ed575060005460ff16155b6106095760405162461bcd60e51b8152600401610546906158f5565b600054610100900460ff16158015610634576000805460ff1961ff0019909116610100171660011790555b6001600160a01b03831661065a5760405162461bcd60e51b81526004016105469061580c565b6001600160a01b0382166106805760405162461bcd60e51b815260040161054690615bd4565b610689826118ab565b610691611940565b60c980546001600160a01b0319166001600160a01b0385161790556106b46119d0565b60cf805460ff60b01b1916600160b01b17905580156106d9576000805461ff00191690555b505050565b33600090815260d2602090815260408083206001600160a01b038616845290915290205460ff16151581151514156107285760405162461bcd60e51b815260040161054690615af2565b33600081815260d2602090815260408083206001600160a01b038716808552925291829020805460ff191685151517905590519091907f1ae45540b0875932452da603b351ce2f1758258ba1345e79f8fc94f044cb07879061078b9085906153c0565b60405180910390a35050565b60cc54604051630478409360e41b8152600091610840916305f5e100916108349186916001600160a01b0316906347840930906107d8908a906004016152f7565b60206040518083038186803b1580156107f057600080fd5b505afa158015610804573d6000803e3d6000fd5b505050506040513d601f19601f820116820180604052508101906108289190615166565b9063ffffffff611c2b16565b9063ffffffff611c6516565b90505b92915050565b60ce546001600160a01b031633146108735760405162461bcd60e51b81526004016105469061553f565b60cf5460ff600160a01b90910416151581151514156108a45760405162461bcd60e51b815260040161054690615af2565b60cf805460ff60a01b1916600160a01b831515810291909117918290556040517f531c3d7229f510a8da00a0f5792686958cdd9c8a120c3c030a6053cd66b68556926108f59260ff910416906153c0565b60405180910390a150565b6109086118a1565b6065546001600160a01b039081169116146109355760405162461bcd60e51b8152600401610546906158a3565b61093d6119d0565b565b60ca5460cb5460cc5460cd546001600160a01b03938416949284169391821692911690565b60cf54600160b01b900460ff1681565b60c9546001600160a01b031681565b61098b6118a1565b6065546001600160a01b039081169116146109b85760405162461bcd60e51b8152600401610546906158a3565b6065546040516000916001600160a01b0316907f8be0079c531659141344cd1fd0a4f28419497f9722a3daafe3b4186f6b6457e0908390a3606580546001600160a01b0319169055565b60cb546001600160a01b031681565b6065546001600160a01b03165b90565b60ca546001600160a01b031681565b610a38614bb9565b6001600160a01b038316600081815260d160209081526040808320868452825280832084845260d3835281842087855283528184205494845260d483528184208785528352818420548251825460e09581028201860190945260c081018481529596879693959094929391928692849290918491840182828015610ae557602002820191906000526020600020905b81546001600160a01b03168152600190910190602001808311610ac7575b5050505050815260200160018201805480602002602001604051908101604052809291908181526020018280548015610b4757602002820191906000526020600020905b81546001600160a01b03168152600190910190602001808311610b29575b5050505050815260200160028201805480602002602001604051908101604052809291908181526020018280548015610ba957602002820191906000526020600020905b81546001600160a01b03168152600190910190602001808311610b8b575b5050505050815260200160038201805480602002602001604051908101604052809291908181526020018280548015610c0157602002820191906000526020600020905b815481526020019060010190808311610bed575b5050505050815260200160048201805480602002602001604051908101604052809291908181526020018280548015610c5957602002820191906000526020600020905b815481526020019060010190808311610c45575b5050505050815260200160058201805480602002602001604051908101604052809291908181526020018280548015610cb157602002820191906000526020600020905b815481526020019060010190808311610c9d575b50505050508152505092509250925092509250925092565b60ce546001600160a01b031681565b60cf546001600160a01b03163314610d025760405162461bcd60e51b81526004016105469061577c565b60cf5460ff600160a81b9091041615158115151415610d335760405162461bcd60e51b815260040161054690615af2565b60cf805460ff60a81b1916600160a81b831515810291909117918290556040517f4f1d0445688d95c99ca9fc036f551b205fd18ff26a4443b1979c16d1ba66b535926108f59260ff910416906153c0565b60975460ff16610da65760405162461bcd60e51b815260040161054690615b9d565b6097805460ff19169055610db8611ca7565b6000806000610dc684611cd1565b9250925092508215610e0357610ddc8282611f87565b6001600160a01b038216600090815260d46020908152604080832084845290915290204290555b50506097805460ff191660011790555050565b6001600160a01b03918216600090815260d26020908152604080832093909416825291909152205460ff1690565b610e4c6118a1565b6065546001600160a01b03908116911614610e795760405162461bcd60e51b8152600401610546906158a3565b6001600160a01b038116610e9f5760405162461bcd60e51b815260040161054690615679565b60ce546001600160a01b0382811691161415610ecd5760405162461bcd60e51b815260040161054690615af2565b60ce546040516001600160a01b038084169216907f1440312dbc326ddc21bfa95078324bf5aaf6899e8a27cba3057c60adfc84e40b90600090a360ce80546001600160a01b0319166001600160a01b0392909216919091179055565b610f316118a1565b6065546001600160a01b03908116911614610f5e5760405162461bcd60e51b8152600401610546906158a3565b6001600160a01b038116610f845760405162461bcd60e51b8152600401610546906155af565b60cf546001600160a01b0382811691161415610fb25760405162461bcd60e51b815260040161054690615af2565b60cf546040516001600160a01b038084169216907f44f3e9e7b454118e9fcb2e3026396f57ca21d7bd7dcabd31d7f986806422f4df90600090a360cf80546001600160a01b0319166001600160a01b0392909216919091179055565b6000611018614bb9565b60006110248585610a30565b5060cc5460405163cd43fbfb60e01b815292945090925060009182916001600160a01b03169063cd43fbfb906110609087908790600401615c3b565b604080518083038186803b15801561107757600080fd5b505afa15801561108b573d6000803e3d6000fd5b505050506040513d601f19601f820116820180604052508101906110af919061517e565b91509150806110c5576000945050505050610843565b5095945050505050565b6001600160a01b0316600090815260d5602052604090205490565b6001600160a01b0316600090815260d0602052604090205490565b61110d6118a1565b6065546001600160a01b0390811691161461113a5760405162461bcd60e51b8152600401610546906158a3565b60cf5460ff600160b01b909104161515811515141561116b5760405162461bcd60e51b815260040161054690615af2565b60cf805460ff60b01b1916600160b01b831515810291909117918290556040517f26d614575a4c104c181c87003d4bb00cc7ade00d5b47bf8775171c12a376b255926108f59260ff910416906153c0565b60cf54600160a01b900460ff1681565b60cc546001600160a01b031681565b6001600160a01b0316600090815260d6602052604090205490565b6111fe614bb9565b6001600160a01b038316600090815260d1602090815260408083208584528252918290208251815460e09381028201840190945260c08101848152909391928492849184018282801561127a57602002820191906000526020600020905b81546001600160a01b0316815260019091019060200180831161125c575b50505050508152602001600182018054806020026020016040519081016040528092919081815260200182805480156112dc57602002820191906000526020600020905b81546001600160a01b031681526001909101906020018083116112be575b505050505081526020016002820180548060200260200160405190810160405280929190818152602001828054801561133e57602002820191906000526020600020905b81546001600160a01b03168152600190910190602001808311611320575b505050505081526020016003820180548060200260200160405190810160405280929190818152602001828054801561139657602002820191906000526020600020905b815481526020019060010190808311611382575b50505050508152602001600482018054806020026020016040519081016040528092919081815260200182805480156113ee57602002820191906000526020600020905b8154815260200190600101908083116113da575b505050505081526020016005820180548060200260200160405190810160405280929190818152602001828054801561144657602002820191906000526020600020905b815481526020019060010190808311611432575b505050505081525050905092915050565b60cd5460405163dd2c99f760e01b81526001600160a01b039091169063dd2c99f79061148b90859033908690600401615350565b600060405180830381600087803b1580156114a557600080fd5b505af11580156114b9573d6000803e3d6000fd5b50505050816001600160a01b0316336001600160a01b03167f4dfff917e1fbb261a082e98cc7d43029621f6a6eb05ff3fef1510d5f1eb4857c8360405161078b9190615cd5565b60008060008060006115118661204d565b93509350935093506115258484848461170c565b9695505050505050565b6000806000806000806115438989896122b2565b919c909b50909950975050505050505050565b60cf54600160a81b900460ff1681565b60975460ff166115885760405162461bcd60e51b815260040161054690615b9d565b6097805460ff1916905561159a611ca7565b6115a48282611f87565b6001600160a01b03909116600090815260d460209081526040808320938352929052204290556097805460ff19166001179055565b6115e16118a1565b6065546001600160a01b0390811691161461160e5760405162461bcd60e51b8152600401610546906158a3565b6001600160a01b0381166116345760405162461bcd60e51b8152600401610546906154f9565b6065546040516001600160a01b038084169216907f8be0079c531659141344cd1fd0a4f28419497f9722a3daafe3b4186f6b6457e090600090a3606580546001600160a01b0319166001600160a01b0392909216919091179055565b6000816001600160a01b031663ade6e2aa6040518163ffffffff1660e01b815260040160206040518083038186803b1580156116cb57600080fd5b505afa1580156116df573d6000803e3d6000fd5b505050506040513d601f19601f820116820180604052508101906117039190615166565b42101592915050565b60cb54604051635fdc714960e01b81526000916001600160a01b031690635fdc71499061173f9088908690600401615337565b60206040518083038186803b15801561175757600080fd5b505afa15801561176b573d6000803e3d6000fd5b505050506040513d601f19601f8201168201806040525081019061178f9190615114565b8015611818575060cb54604051635fdc714960e01b81526001600160a01b0390911690635fdc7149906117c89087908690600401615337565b60206040518083038186803b1580156117e057600080fd5b505afa1580156117f4573d6000803e3d6000fd5b505050506040513d601f19601f820116820180604052508101906118189190615114565b80156104ea575060cb54604051635fdc714960e01b81526001600160a01b0390911690635fdc7149906118519086908690600401615337565b60206040518083038186803b15801561186957600080fd5b505afa15801561187d573d6000803e3d6000fd5b505050506040513d601f19601f820116820180604052508101906104ea9190615114565b3390565b303b1590565b600054610100900460ff16806118c457506118c46118a5565b806118d2575060005460ff16155b6118ee5760405162461bcd60e51b8152600401610546906158f5565b600054610100900460ff16158015611919576000805460ff1961ff0019909116610100171660011790555b61192161238d565b61192a8261240f565b801561193c576000805461ff00191690555b5050565b600054610100900460ff168061195957506119596118a5565b80611967575060005460ff16155b6119835760405162461bcd60e51b8152600401610546906158f5565b600054610100900460ff161580156119ae576000805460ff1961ff0019909116610100171660011790555b6097805460ff1916600117905580156119cd576000805461ff00191690555b50565b60c960009054906101000a90046001600160a01b03166001600160a01b031663d01f63f56040518163ffffffff1660e01b815260040160206040518083038186803b158015611a1e57600080fd5b505afa158015611a32573d6000803e3d6000fd5b505050506040513d601f19601f82011682018060405250810190611a569190614e1f565b60ca80546001600160a01b0319166001600160a01b0392831617905560c9546040805163419d8fe760e11b81529051919092169163833b1fce916004808301926020929190829003018186803b158015611aaf57600080fd5b505afa158015611ac3573d6000803e3d6000fd5b505050506040513d601f19601f82011682018060405250810190611ae79190614e1f565b60cb80546001600160a01b0319166001600160a01b0392831617905560c9546040805163cf28493f60e01b81529051919092169163cf28493f916004808301926020929190829003018186803b158015611b4057600080fd5b505afa158015611b54573d6000803e3d6000fd5b505050506040513d601f19601f82011682018060405250810190611b789190614e1f565b60cc80546001600160a01b0319166001600160a01b0392831617905560c95460408051633aa431a160e11b8152905191909216916375486342916004808301926020929190829003018186803b158015611bd157600080fd5b505afa158015611be5573d6000803e3d6000fd5b505050506040513d601f19601f82011682018060405250810190611c099190614e1f565b60cd80546001600160a01b0319166001600160a01b0392909216919091179055565b600082611c3a57506000610843565b82820282848281611c4757fe5b04146108405760405162461bcd60e51b815260040161054690615845565b600061084083836040518060400160405280601a81526020017f536166654d6174683a206469766973696f6e206279207a65726f0000000000008152506124db565b60cf54600160a81b900460ff161561093d5760405162461bcd60e51b815260040161054690615c0c565b60008080808080805b8751811015611f7b57611ceb614bef565b888281518110611cf757fe5b60209081029190910101518051909150600781600a811115611d1557fe5b14158015611d2f5750600881600a811115611d2c57fe5b14155b8015611d475750600a81600a811115611d4457fe5b14155b8015611d5f5750600981600a811115611d5c57fe5b14155b15611dd5578315611dc25781602001516001600160a01b0316866001600160a01b031614611d9f5760405162461bcd60e51b8152600401610546906157d2565b81608001518514611dc25760405162461bcd60e51b8152600401610546906155e9565b6001935081608001519450816020015195505b600081600a811115611de357fe5b1415611dff57611dfa611df583612512565b6125ea565b611f71565b600381600a811115611e0d57fe5b1415611e2457611dfa611e1f836126d9565b6127b5565b600481600a811115611e3257fe5b1415611e4957611dfa611e4483612b06565b612ba5565b600581600a811115611e5757fe5b1415611e6e57611dfa611e69836126d9565b612df9565b600681600a811115611e7c57fe5b1415611e9357611dfa611e8e83612b06565b613157565b600181600a811115611ea157fe5b1415611eb857611dfa611eb38361345b565b6134b9565b600281600a811115611ec657fe5b1415611edd57611dfa611ed8836137a1565b6137ff565b600881600a811115611eeb57fe5b1415611f0257611dfa611efd83613a98565b613b2a565b600781600a811115611f1057fe5b1415611f2757611dfa611f2283613d79565b613e41565b600a81600a811115611f3557fe5b1415611f4c57611dfa611f478361429e565b6143b8565b600981600a811115611f5a57fe5b1415611f7157611f71611f6c83614837565b6148bc565b5050600101611cda565b50969195509350915050565b611f8f614bb9565b6000611f9b8484610a30565b5060cc5460405163cd43fbfb60e01b81529294509092506000916001600160a01b039091169063cd43fbfb90611fd79086908690600401615c3b565b604080518083038186803b158015611fee57600080fd5b505afa158015612002573d6000803e3d6000fd5b505050506040513d601f19601f82011682018060405250810190612026919061517e565b915050806120465760405162461bcd60e51b815260040161054690615412565b5050505050565b6000806000806000859050806001600160a01b031663af0968fc6040518163ffffffff1660e01b815260040160c06040518083038186803b15801561209157600080fd5b505afa9250505080156120c1575060408051601f3d908101601f191682019092526120be91810190614ec3565b60015b61229757806001600160a01b031663aabaecd66040518163ffffffff1660e01b815260040160206040518083038186803b1580156120fe57600080fd5b505afa158015612112573d6000803e3d6000fd5b505050506040513d601f19601f820116820180604052508101906121369190614e1f565b816001600160a01b0316637158da7c6040518163ffffffff1660e01b815260040160206040518083038186803b15801561216f57600080fd5b505afa158015612183573d6000803e3d6000fd5b505050506040513d601f19601f820116820180604052508101906121a79190614e1f565b826001600160a01b03166317d69bc86040518163ffffffff1660e01b815260040160206040518083038186803b1580156121e057600080fd5b505afa1580156121f4573d6000803e3d6000fd5b505050506040513d601f19601f820116820180604052508101906122189190614e1f565b836001600160a01b031663ade6e2aa6040518163ffffffff1660e01b815260040160206040518083038186803b15801561225157600080fd5b505afa158015612265573d6000803e3d6000fd5b505050506040513d601f19601f820116820180604052508101906122899190615166565b9450945094509450506122ab565b5093985091965094509092506122ab915050565b9193509193565b6122ba614bb9565b60008060006122c7614bb9565b6000806122d48a8a610a30565b925092509250600080600060cc60009054906101000a90046001600160a01b03166001600160a01b031663a6c569078787878f6040518563ffffffff1660e01b81526004016123269493929190615c82565b60606040518083038186803b15801561233e57600080fd5b505afa158015612352573d6000803e3d6000fd5b505050506040513d601f19601f820116820180604052508101906123769190615130565b979f919e509c50959a509498505050505050505050565b600054610100900460ff16806123a657506123a66118a5565b806123b4575060005460ff16155b6123d05760405162461bcd60e51b8152600401610546906158f5565b600054610100900460ff161580156123fb576000805460ff1961ff0019909116610100171660011790555b80156119cd576000805461ff001916905550565b600054610100900460ff168061242857506124286118a5565b80612436575060005460ff16155b6124525760405162461bcd60e51b8152600401610546906158f5565b600054610100900460ff1615801561247d576000805460ff1961ff0019909116610100171660011790555b606580546001600160a01b0319166001600160a01b0384169081179091556040516000907f8be0079c531659141344cd1fd0a4f28419497f9722a3daafe3b4186f6b6457e0908290a3801561193c576000805461ff00191690555050565b600081836124fc5760405162461bcd60e51b815260040161054691906153e3565b50600083858161250857fe5b0495945050505050565b61251a614c50565b60008251600a81111561252957fe5b146125465760405162461bcd60e51b815260040161054690615623565b60208201516001600160a01b03166125705760405162461bcd60e51b8152600401610546906156b2565b60008260e00151516020141561259b578260e001518060200190518101906125989190615166565b90505b600281106125bb5760405162461bcd60e51b8152600401610546906154c0565b604080516060810182526020808601516001600160a01b03168252608090950151948101949094528301525090565b6125f26149af565b8051339061260082826149d9565b82516001600160a01b0316600090815260d0602052604081205461262b90600163ffffffff614a3a16565b9050808460200151146126505760405162461bcd60e51b8152600401610546906157b5565b83516001600160a01b03908116600090815260d060209081526040808320859055808801805189518616855260d384528285208786529093529281902091909155905186519151909291909116907f5d66689e2c864b4f21efd3988c0ce5dc8a197981b68e81ce73660e92394fe25f906126cb908590615cd5565b60405180910390a350505050565b6126e1614c7a565b60038251600a8111156126f057fe5b1480612708575060058251600a81111561270657fe5b145b6127245760405162461bcd60e51b8152600401610546906159f1565b60208201516001600160a01b031661274e5760405162461bcd60e51b815260040161054690615a0d565b6040518060c0016040528083602001516001600160a01b031681526020018360800151815260200183604001516001600160a01b0316815260200183606001516001600160a01b031681526020018360c0015181526020018360a001518152509050919050565b6127bd6149af565b805133906127cb82826149d9565b6127dd83600001518460200151614a5f565b6127f95760405162461bcd60e51b815260040161054690615725565b60408301516001600160a01b031633148061282d575082600001516001600160a01b031683604001516001600160a01b0316145b6128495760405162461bcd60e51b81526004016105469061555b565b60ca5460608401516040516302328d7360e31b81526001600160a01b03909216916311946b989161287c916004016152f7565b60206040518083038186803b15801561289457600080fd5b505afa1580156128a8573d6000803e3d6000fd5b505050506040513d601f19601f820116820180604052508101906128cc9190615114565b6128e85760405162461bcd60e51b815260040161054690615b63565b600083606001519050806001600160a01b031663ade6e2aa6040518163ffffffff1660e01b815260040160206040518083038186803b15801561292a57600080fd5b505afa15801561293e573d6000803e3d6000fd5b505050506040513d601f19601f820116820180604052508101906129629190615166565b42106129805760405162461bcd60e51b8152600401610546906156ce565b83516001600160a01b0316600090815260d16020908152604080832082880151845290915290819020606086015160a08701516080880151935163155bf27360e31b815273__$f483377b159a5ea0e3632e216689e4fd4e$__9463aadf9398946129f39490939092909190600401615cb1565b60006040518083038186803b158015612a0b57600080fd5b505af4158015612a1f573d6000803e3d6000fd5b505060cd54606087015160408089015160a08a0151915163dd2c99f760e01b81526001600160a01b03909416955063dd2c99f79450612a6393909190600401615350565b600060405180830381600087803b158015612a7d57600080fd5b505af1158015612a91573d6000803e3d6000fd5b5050505083604001516001600160a01b031684600001516001600160a01b031685606001516001600160a01b03167f2607e210004cef0ad6b3e6aedb778bffb03c1586f8dcf55d49afffde210d8bb187602001518860a00151604051612af8929190615cde565b60405180910390a450505050565b612b0e614c7a565b60048251600a811115612b1d57fe5b1480612b35575060068251600a811115612b3357fe5b145b612b515760405162461bcd60e51b8152600401610546906158d8565b60208201516001600160a01b0316612b7b5760405162461bcd60e51b815260040161054690615469565b60408201516001600160a01b031661274e5760405162461bcd60e51b815260040161054690615960565b612bad6149af565b80513390612bbb82826149d9565b612bcd83600001518460200151614a5f565b612be95760405162461bcd60e51b815260040161054690615725565b600083606001519050806001600160a01b031663ade6e2aa6040518163ffffffff1660e01b815260040160206040518083038186803b158015612c2b57600080fd5b505afa158015612c3f573d6000803e3d6000fd5b505050506040513d601f19601f82011682018060405250810190612c639190615166565b4210612c815760405162461bcd60e51b815260040161054690615a7f565b83516001600160a01b0316600090815260d16020908152604080832082880151845290915290819020606086015160a08701516080880151935163951dd8d360e01b815273__$f483377b159a5ea0e3632e216689e4fd4e$__9463951dd8d394612cf49490939092909190600401615cb1565b60006040518083038186803b158015612d0c57600080fd5b505af4158015612d20573d6000803e3d6000fd5b505060cd54606087015160408089015160a08a0151915163fa93b2a560e01b81526001600160a01b03909416955063fa93b2a59450612d6493909190600401615350565b600060405180830381600087803b158015612d7e57600080fd5b505af1158015612d92573d6000803e3d6000fd5b5050505083604001516001600160a01b031684600001516001600160a01b031685606001516001600160a01b03167fbd023c53d293da163d185720d4274f4ddabc09d5304491a55abb296cc811d9fa87602001518860a00151604051612af8929190615cde565b612e016149af565b80513390612e0f82826149d9565b612e2183600001518460200151614a5f565b612e3d5760405162461bcd60e51b815260040161054690615725565b60408301516001600160a01b0316331480612e71575082600001516001600160a01b031683604001516001600160a01b0316145b612e8d5760405162461bcd60e51b81526004016105469061542f565b60ca54606084015160405163f9839d8960e01b81526001600160a01b039092169163f9839d8991612ec0916004016152f7565b60206040518083038186803b158015612ed857600080fd5b505afa158015612eec573d6000803e3d6000fd5b505050506040513d601f19601f82011682018060405250810190612f109190615114565b612f2c5760405162461bcd60e51b815260040161054690615708565b6000612f4084600001518560200151610a30565b509150508060011415612fdf5760a084015160608501516001600160a01b0316600090815260d66020526040902054612f7e9163ffffffff614a3a16565b6060850180516001600160a01b03908116600090815260d6602081815260408084209690965584518416835260d58152858320549451909316825290915291909120541115612fdf5760405162461bcd60e51b815260040161054690615886565b83516001600160a01b0316600090815260d16020908152604080832082880151845290915290819020606086015160a0870151608088015193516301f974ab60e61b815273__$f483377b159a5ea0e3632e216689e4fd4e$__94637e5d2ac0946130529490939092909190600401615cb1565b60006040518083038186803b15801561306a57600080fd5b505af415801561307e573d6000803e3d6000fd5b505060cd54606087015160408089015160a08a0151915163dd2c99f760e01b81526001600160a01b03909416955063dd2c99f794506130c293909190600401615350565b600060405180830381600087803b1580156130dc57600080fd5b505af11580156130f0573d6000803e3d6000fd5b5050505083604001516001600160a01b031684600001516001600160a01b031685606001516001600160a01b03167fbfab88b861f171b7db714f00e5966131253918d55ddba816c3eb94657d10239087602001518860a00151604051612af8929190615cde565b61315f6149af565b8051339061316d82826149d9565b61317f83600001518460200151614a5f565b61319b5760405162461bcd60e51b815260040161054690615725565b6131a3614bb9565b60006131b785600001518660200151610a30565b50915091506131c98260000151614a8c565b1561327c57600082600001516000815181106131e157fe5b60200260200101519050806001600160a01b031663ade6e2aa6040518163ffffffff1660e01b815260040160206040518083038186803b15801561322457600080fd5b505afa158015613238573d6000803e3d6000fd5b505050506040513d601f19601f8201168201806040525081019061325c9190615166565b421061327a5760405162461bcd60e51b815260040161054690615943565b505b80600114156132d45760a085015160608601516001600160a01b0316600090815260d660205260409020546132b69163ffffffff614aca16565b60608601516001600160a01b0316600090815260d660205260409020555b84516001600160a01b0316600090815260d16020908152604080832082890151845290915290819020606087015160a088015160808901519351630380bfdd60e61b815273__$f483377b159a5ea0e3632e216689e4fd4e$__9463e02ff740946133479490939092909190600401615cb1565b60006040518083038186803b15801561335f57600080fd5b505af4158015613373573d6000803e3d6000fd5b505060cd5460608801516040808a015160a08b0151915163fa93b2a560e01b81526001600160a01b03909416955063fa93b2a594506133b793909190600401615350565b600060405180830381600087803b1580156133d157600080fd5b505af11580156133e5573d6000803e3d6000fd5b5050505084604001516001600160a01b031685600001516001600160a01b031686606001516001600160a01b03167ffe86f7694b6c54a528acbe27be61dd4a85e9a89aeef7f650a1b439045ccee5a488602001518960a0015160405161344c929190615cde565b60405180910390a45050505050565b613463614c7a565b60018251600a81111561347257fe5b1461348f5760405162461bcd60e51b815260040161054690615b0e565b60208201516001600160a01b031661274e5760405162461bcd60e51b815260040161054690615b47565b6134c16149af565b805133906134cf82826149d9565b6134e183600001518460200151614a5f565b6134fd5760405162461bcd60e51b815260040161054690615725565b60ca5460608401516040516302328d7360e31b81526001600160a01b03909216916311946b9891613530916004016152f7565b60206040518083038186803b15801561354857600080fd5b505afa15801561355c573d6000803e3d6000fd5b505050506040513d601f19601f820116820180604052508101906135809190615114565b61359c5760405162461bcd60e51b81526004016105469061563f565b600083606001519050806001600160a01b031663ade6e2aa6040518163ffffffff1660e01b815260040160206040518083038186803b1580156135de57600080fd5b505afa1580156135f2573d6000803e3d6000fd5b505050506040513d601f19601f820116820180604052508101906136169190615166565b42106136345760405162461bcd60e51b815260040161054690615828565b83516001600160a01b0316600090815260d16020908152604080832082880151845290915290819020606086015160a08701516080880151935163ef682c1b60e01b815273__$f483377b159a5ea0e3632e216689e4fd4e$__9463ef682c1b946136a79490939092909190600401615cb1565b60006040518083038186803b1580156136bf57600080fd5b505af41580156136d3573d6000803e3d6000fd5b50505060408086015160a0870151915163051b0a4160e41b81526001600160a01b03851693506351b0a4109261370c9291600401615337565b600060405180830381600087803b15801561372657600080fd5b505af115801561373a573d6000803e3d6000fd5b5050505083604001516001600160a01b031684600001516001600160a01b031685606001516001600160a01b03167f4d7f96086c92b2f9a254ad21548b1c1f2d99502c7949508866349b96bb1a8d8a87602001518860a00151604051612af8929190615cde565b6137a9614c7a565b60028251600a8111156137b857fe5b146137d55760405162461bcd60e51b815260040161054690615a46565b60208201516001600160a01b031661274e5760405162461bcd60e51b815260040161054690615696565b6138076149af565b8051339061381582826149d9565b61382783600001518460200151614a5f565b6138435760405162461bcd60e51b815260040161054690615725565b60408301516001600160a01b0316331480613877575082600001516001600160a01b031683604001516001600160a01b0316145b6138935760405162461bcd60e51b81526004016105469061565c565b600083606001519050806001600160a01b031663ade6e2aa6040518163ffffffff1660e01b815260040160206040518083038186803b1580156138d557600080fd5b505afa1580156138e9573d6000803e3d6000fd5b505050506040513d601f19601f8201168201806040525081019061390d9190615166565b421061392b5760405162461bcd60e51b8152600401610546906154a3565b83516001600160a01b0316600090815260d16020908152604080832082880151845290915290819020606086015160a087015160808801519351637b5c283560e01b815273__$f483377b159a5ea0e3632e216689e4fd4e$__94637b5c28359461399e9490939092909190600401615cb1565b60006040518083038186803b1580156139b657600080fd5b505af41580156139ca573d6000803e3d6000fd5b50505060408086015160a087015191516356d878f760e01b81526001600160a01b03851693506356d878f792613a039291600401615337565b600060405180830381600087803b158015613a1d57600080fd5b505af1158015613a31573d6000803e3d6000fd5b5050505083604001516001600160a01b031684600001516001600160a01b031685606001516001600160a01b03167fdd96b18f26fd9950581b9fd821fa907fc318845fc4d220b825a7b19bfdd174e887602001518860a00151604051612af8929190615cde565b613aa0614ccb565b60088251600a811115613aaf57fe5b14613acc5760405162461bcd60e51b815260040161054690615b2a565b60408201516001600160a01b0316613af65760405162461bcd60e51b815260040161054690615742565b506040805160608082018352838301516001600160a01b0390811683529084015116602082015260a0909201519082015290565b602081015160ca546040516302328d7360e31b81526001600160a01b03909116906311946b9890613b5f9084906004016152f7565b60206040518083038186803b158015613b7757600080fd5b505afa158015613b8b573d6000803e3d6000fd5b505050506040513d601f19601f82011682018060405250810190613baf9190615114565b613bcb5760405162461bcd60e51b815260040161054690615b80565b600080600080613bda8561204d565b935093509350935080421015613c025760405162461bcd60e51b815260040161054690615a29565b613c0e8383868461170c565b613c2a5760405162461bcd60e51b81526004016105469061597d565b6000613c3e87602001518860400151610797565b9050856001600160a01b03166356d878f73389604001516040518363ffffffff1660e01b8152600401613c72929190615337565b600060405180830381600087803b158015613c8c57600080fd5b505af1158015613ca0573d6000803e3d6000fd5b505060cd54895160405163fa93b2a560e01b81526001600160a01b03909216935063fa93b2a59250613cd9918991908690600401615350565b600060405180830381600087803b158015613cf357600080fd5b505af1158015613d07573d6000803e3d6000fd5b5050505086600001516001600160a01b0316336001600160a01b031688602001516001600160a01b03167f18fd144d7dbcbaa6f00fd47a84adc7dc3cc64a326ffa2dc7691a25e3837dba03888b6040015186604051613d689392919061539f565b60405180910390a450505050505050565b613d81614ccb565b60078251600a811115613d9057fe5b14613dad5760405162461bcd60e51b8152600401610546906159d4565b60208201516001600160a01b0316613dd75760405162461bcd60e51b8152600401610546906154dc565b60408201516001600160a01b0316613e015760405162461bcd60e51b815260040161054690615a9c565b604051806060016040528083602001516001600160a01b031681526020018360800151815260200183604001516001600160a01b03168152509050919050565b80513390613e4f82826149d9565b613e6183600001518460200151614a5f565b613e7d5760405162461bcd60e51b815260040161054690615725565b613e85614bb9565b6000613e9985600001518660200151610a30565b5091509150600080613eae8460000151614a8c565b90506000613ebf8560200151614a8c565b90508180613eca5750805b613ee65760405162461bcd60e51b81526004016105469061599a565b81613f09578460200151600081518110613efc57fe5b6020026020010151613f1f565b84518051600090613f1657fe5b60200260200101515b92508015613fd35760008560200151600081518110613f3a57fe5b60200260200101519050806001600160a01b03166356d878f760cd60009054906101000a90046001600160a01b03168860800151600081518110613f7a57fe5b60200260200101516040518363ffffffff1660e01b8152600401613f9f929190615337565b600060405180830381600087803b158015613fb957600080fd5b505af1158015613fcd573d6000803e3d6000fd5b50505050505b5050600080600080613fe48561204d565b93509350935093508042101561400c5760405162461bcd60e51b8152600401610546906156eb565b6140188383868461170c565b6140345760405162461bcd60e51b81526004016105469061597d565b60cc5460405163cd43fbfb60e01b815260009182916001600160a01b039091169063cd43fbfb9061406b908c908c90600401615c3b565b604080518083038186803b15801561408257600080fd5b505afa158015614096573d6000803e3d6000fd5b505050506040513d601f19601f820116820180604052508101906140ba919061517e565b91509150806140db5760405162461bcd60e51b815260040161054690615606565b60d160008d600001516001600160a01b03166001600160a01b0316815260200190815260200160002060008d6020015181526020019081526020016000206000808201600061412a9190614ceb565b614138600183016000614ceb565b614146600283016000614ceb565b614154600383016000614ceb565b614162600483016000614ceb565b614170600583016000614ceb565b505087600114156141be576001600160a01b038616600090815260d660205260409020546141a4908363ffffffff614aca16565b6001600160a01b038716600090815260d660205260409020555b60cd546040808e0151905163fa93b2a560e01b81526001600160a01b039092169163fa93b2a5916141f6918a91908790600401615350565b600060405180830381600087803b15801561421057600080fd5b505af1158015614224573d6000803e3d6000fd5b5050505060008c60200151905060008d60400151905089896001600160a01b03168f600001516001600160a01b03167f522cda7dd0677ee4c9512efd8aa92af93de64b4c2fe2f8bfe7a9234a655a9bf58488876040516142869392919061539f565b60405180910390a45050505050505050505050505050565b6142a6614d09565b600a8251600a8111156142b557fe5b146142d25760405162461bcd60e51b81526004016105469061544c565b60208201516001600160a01b03166142fc5760405162461bcd60e51b8152600401610546906155cc565b60408201516001600160a01b03166143265760405162461bcd60e51b815260040161054690615486565b8160e001515160201461434b5760405162461bcd60e51b815260040161054690615a62565b60008260e001518060200190518101906143659190615166565b90506040518060a0016040528084602001516001600160a01b0316815260200184604001516001600160a01b03168152602001846080015181526020018460a00151815260200182815250915050919050565b6143c06149af565b6143d281600001518260400151614a5f565b6143ee5760405162461bcd60e51b815260040161054690615725565b6143f6614bb9565b60008060006144128560000151866040015187608001516122b2565b9350935093509350826144375760405162461bcd60e51b815260040161054690615ab9565b60006144586305f5e100610834858960600151611c2b90919063ffffffff16565b9050600061448b8760600151876060015160008151811061447557fe5b6020026020010151614aca90919063ffffffff16565b11156144c557816144a7828760a0015160008151811061447557fe5b10156144c55760405162461bcd60e51b815260040161054690615798565b845180516000906144d257fe5b60200260200101516001600160a01b03166356d878f73388606001516040518363ffffffff1660e01b815260040161450b929190615337565b600060405180830381600087803b15801561452557600080fd5b505af1158015614539573d6000803e3d6000fd5b505087516001600160a01b0316600090815260d160209081526040808320818c0151845290915280822090890151805173__$f483377b159a5ea0e3632e216689e4fd4e$__955063e02ff74094509192909161459157fe5b60200260200101518460006040518563ffffffff1660e01b81526004016145bb9493929190615cb1565b60006040518083038186803b1580156145d357600080fd5b505af41580156145e7573d6000803e3d6000fd5b505087516001600160a01b0316600090815260d160209081526040808320818c0151845290915281208851805173__$f483377b159a5ea0e3632e216689e4fd4e$__9550637b5c283594509192909161463c57fe5b6020026020010151896060015160006040518563ffffffff1660e01b815260040161466a9493929190615cb1565b60006040518083038186803b15801561468257600080fd5b505af4158015614696573d6000803e3d6000fd5b505050506146ea8160d6600088604001516000815181106146b357fe5b60200260200101516001600160a01b03166001600160a01b0316815260200190815260200160002054614aca90919063ffffffff16565b60d6600087604001516000815181106146ff57fe5b60200260200101516001600160a01b03166001600160a01b031681526020019081526020016000208190555060cd60009054906101000a90046001600160a01b03166001600160a01b031663fa93b2a5866040015160008151811061476057fe5b60200260200101518860200151846040518463ffffffff1660e01b815260040161478c93929190615350565b600060405180830381600087803b1580156147a657600080fd5b505af11580156147ba573d6000803e3d6000fd5b5050505085600001516001600160a01b031686602001516001600160a01b0316336001600160a01b03167f93e59ec97820bb1ed9fb6ddc10619d1574e803b1f79b937414feb8f6b7051f9d868a60800151868c606001518d60400151604051614827959493929190615cec565b60405180910390a4505050505050565b61483f614d4a565b60098251600a81111561484e57fe5b1461486b5760405162461bcd60e51b8152600401610546906157ef565b60408201516001600160a01b03166148955760405162461bcd60e51b8152600401610546906159b7565b50604080518082018252908201516001600160a01b0316815260e090910151602082015290565b6148c46149af565b805160cf54600160b01b900460ff16156148fd576148e181614b0c565b6148fd5760405162461bcd60e51b815260040161054690615bf0565b815160208301516040516309c23da560e41b81526001600160a01b0390921691639c23da50916149329133919060040161530b565b600060405180830381600087803b15801561494c57600080fd5b505af1158015614960573d6000803e3d6000fd5b5050505081600001516001600160a01b0316336001600160a01b03167f8750bdaf6e88201790ee2765fea3ac73b514a52658c818723a30de91029ad000846020015160405161078b91906153e3565b60cf54600160a01b900460ff161561093d5760405162461bcd60e51b815260040161054690615ad6565b806001600160a01b0316826001600160a01b03161480614a1e57506001600160a01b03808216600090815260d2602090815260408083209386168352929052205460ff165b61193c5760405162461bcd60e51b8152600401610546906153f6565b6000828201838110156108405760405162461bcd60e51b815260040161054690615578565b600080821180156108405750506001600160a01b0391909116600090815260d06020526040902054101590565b6000808251118015610843575060006001600160a01b031682600081518110614ab157fe5b60200260200101516001600160a01b0316141592915050565b600061084083836040518060400160405280601e81526020017f536166654d6174683a207375627472616374696f6e206f766572666c6f770000815250614b8d565b60ca546040516351572a2d60e11b81526000916001600160a01b03169063a2ae545a90614b3d9085906004016152f7565b60206040518083038186803b158015614b5557600080fd5b505afa158015614b69573d6000803e3d6000fd5b505050506040513d601f19601f820116820180604052508101906108439190615114565b60008184841115614bb15760405162461bcd60e51b815260040161054691906153e3565b505050900390565b6040518060c001604052806060815260200160608152602001606081526020016060815260200160608152602001606081525090565b604080516101008101909152806000815260200160006001600160a01b0316815260200160006001600160a01b0316815260200160006001600160a01b03168152602001600081526020016000815260200160008152602001606081525090565b604051806060016040528060006001600160a01b0316815260200160008152602001600081525090565b6040518060c0016040528060006001600160a01b031681526020016000815260200160006001600160a01b0316815260200160006001600160a01b0316815260200160008152602001600081525090565b604080516060810182526000808252602082018190529181019190915290565b50805460008255906000526020600020908101906119cd9190614d62565b6040518060a0016040528060006001600160a01b0316815260200160006001600160a01b031681526020016000815260200160008152602001600081525090565b60408051808201909152600081526060602082015290565b610a1e91905b80821115614d7c5760008155600101614d68565b5090565b803561084381615d36565b600082601f830112614d9b578081fd5b813567ffffffffffffffff811115614db1578182fd5b614dc4601f8201601f1916602001615d0f565b9150808252836020828501011115614ddb57600080fd5b8060208401602084013760009082016020015292915050565b8035600b811061084357600080fd5b600060208284031215614e14578081fd5b813561084081615d36565b600060208284031215614e30578081fd5b815161084081615d36565b60008060408385031215614e4d578081fd5b8235614e5881615d36565b91506020830135614e6881615d36565b809150509250929050565b60008060008060808587031215614e88578182fd5b8435614e9381615d36565b93506020850135614ea381615d36565b92506040850135614eb381615d36565b9396929550929360600135925050565b60008060008060008060c08789031215614edb578182fd5b8651614ee681615d36565b6020880151909650614ef781615d36565b6040880151909550614f0881615d36565b80945050606087015192506080870151915060a0870151614f2881615d4b565b809150509295509295509295565b60008060408385031215614f48578182fd5b8235614f5381615d36565b91506020830135614e6881615d4b565b60008060408385031215614f75578182fd5b8235614f8081615d36565b946020939093013593505050565b600080600060608486031215614fa2578283fd5b8335614fad81615d36565b95602085013595506040909401359392505050565b60006020808385031215614fd4578182fd5b823567ffffffffffffffff80821115614feb578384fd5b81850186601f820112614ffc578485fd5b803592508183111561500c578485fd5b6150198485850201615d0f565b83815284810190828601875b868110156150e9578135850161010080601f19838f03011215615046578a8bfd5b61504f81615d0f565b61505b8e8c8501614df4565b815261506a8e60408501614d80565b8b820152606061507c8f828601614d80565b604083015261508e8f60808601614d80565b818301525060a0830135608082015260c083013560a082015260e083013560c082015281830135898111156150c1578c8dfd5b6150cf8f8d83870101614d8b565b60e083015250865250509287019290870190600101615025565b50909998505050505050505050565b600060208284031215615109578081fd5b813561084081615d4b565b600060208284031215615125578081fd5b815161084081615d4b565b600080600060608486031215615144578081fd5b835161514f81615d4b565b602085015160409095015190969495509392505050565b600060208284031215615177578081fd5b5051919050565b60008060408385031215615190578182fd5b825191506020830151614e6881615d4b565b6000815180845260208085019450808401835b838110156151da5781516001600160a01b0316875295820195908201906001016151b5565b509495945050505050565b6000815180845260208085019450808401835b838110156151da578151875295820195908201906001016151f8565b60008151808452815b818110156152395760208185018101518683018201520161521d565b8181111561524a5782602083870101525b50601f01601f19169290920160200192915050565b6000815160c0845261527460c08501826151a2565b60208401519150848103602086015261528d81836151a2565b6040850151925085810360408701526152a681846151a2565b9150506060840151915084810360608601526152c281836151e5565b6080850151925085810360808701526152db81846151e5565b91505060a0840151915084810360a08601526104ea81836151e5565b6001600160a01b0391909116815260200190565b6001600160a01b038316815260406020820181905260009061532f90830184615214565b949350505050565b6001600160a01b03929092168252602082015260400190565b6001600160a01b039384168152919092166020820152604081019190915260600190565b6001600160a01b03948516815292841660208401529083166040830152909116606082015260800190565b6001600160a01b039390931683526020830191909152604082015260600190565b901515815260200190565b92151583526020830191909152604082015260600190565b6000602082526108406020830184615214565b602080825260029082015261219b60f11b604082015260600190565b60208082526003908201526210cc4d60ea1b604082015260600190565b60208082526003908201526204332360ec1b604082015260600190565b60208082526003908201526208262760eb1b604082015260600190565b60208082526003908201526241313160e81b604082015260600190565b60208082526003908201526204132360ec1b604082015260600190565b60208082526003908201526221991b60e91b604082015260600190565b602080825260029082015261413360f01b604082015260600190565b60208082526003908201526220989b60e91b604082015260600190565b60208082526026908201527f4f776e61626c653a206e6577206f776e657220697320746865207a65726f206160408201526564647265737360d01b606082015260800190565b602080825260029082015261219960f11b604082015260600190565b60208082526003908201526221989b60e91b604082015260600190565b6020808252601b908201527f536166654d6174683a206164646974696f6e206f766572666c6f770000000000604082015260600190565b60208082526003908201526204331360ec1b604082015260600190565b60208082526003908201526241313960e81b604082015260600190565b60208082526003908201526243313360e81b604082015260600190565b60208082526003908201526221999960e91b604082015260600190565b602080825260029082015261413160f01b604082015260600190565b60208082526003908201526243323360e81b604082015260600190565b60208082526003908201526243323560e81b604082015260600190565b60208082526003908201526243313160e81b604082015260600190565b602080825260029082015261413760f01b604082015260600190565b602080825260029082015261209960f11b604082015260600190565b60208082526003908201526208662760eb1b604082015260600190565b60208082526003908201526243333160e81b604082015260600190565b60208082526003908201526243323160e81b604082015260600190565b60208082526003908201526243333560e81b604082015260600190565b602080825260039082015262104c4d60ea1b604082015260600190565b60208082526003908201526221999b60e91b604082015260600190565b602080825260029082015261433160f01b604082015260600190565b60208082526003908201526210cccd60ea1b604082015260600190565b60208082526003908201526243313560e81b604082015260600190565b60208082526003908201526221989960e91b604082015260600190565b60208082526003908201526220991960e91b604082015260600190565b602080825260029082015261433760f01b604082015260600190565b60208082526003908201526210cc8d60ea1b604082015260600190565b60208082526021908201527f536166654d6174683a206d756c7469706c69636174696f6e206f766572666c6f6040820152607760f81b606082015260800190565b60208082526003908201526243333760e81b604082015260600190565b6020808252818101527f4f776e61626c653a2063616c6c6572206973206e6f7420746865206f776e6572604082015260600190565b60208082526003908201526204131360ec1b604082015260600190565b6020808252602e908201527f436f6e747261637420696e7374616e63652068617320616c726561647920626560408201526d195b881a5b9a5d1a585b1a5e995960921b606082015260800190565b60208082526003908201526221991960e91b604082015260600190565b60208082526003908201526220989960e91b604082015260600190565b60208082526003908201526243323960e81b604082015260600190565b60208082526003908201526204333360ec1b604082015260600190565b60208082526003908201526241323360e81b604082015260600190565b60208082526003908201526241313560e81b604082015260600190565b602080825260029082015261082760f31b604082015260600190565b602080825260029082015261413960f01b604082015260600190565b60208082526003908201526208664760eb1b604082015260600190565b602080825260029082015261209b60f11b604082015260600190565b60208082526003908201526241323160e81b604082015260600190565b60208082526003908201526243313960e81b604082015260600190565b60208082526003908201526241313760e81b604082015260600190565b60208082526003908201526243333360e81b604082015260600190565b60208082526002908201526110cd60f21b604082015260600190565b602080825260029082015261433960f01b604082015260600190565b602080825260029082015261104d60f21b604082015260600190565b60208082526003908201526241313360e81b604082015260600190565b602080825260029082015261413560f01b604082015260600190565b60208082526003908201526243313760e81b604082015260600190565b60208082526003908201526243323760e81b604082015260600190565b6020808252601f908201527f5265656e7472616e637947756172643a207265656e7472616e742063616c6c00604082015260600190565b602080825260029082015261086760f31b604082015260600190565b602080825260029082015261433360f01b604082015260600190565b602080825260029082015261433560f01b604082015260600190565b600060208252610840602083018461525f565b600060408252615c4e604083018561525f565b90508260208301529392505050565b600060608252615c70606083018661525f565b60208301949094525060400152919050565b600060808252615c95608083018761525f565b6020830195909552506040810192909252606090910152919050565b9384526001600160a01b039290921660208401526040830152606082015260800190565b90815260200190565b918252602082015260400190565b948552602085019390935260408401919091526060830152608082015260a00190565b60405181810167ffffffffffffffff81118282101715615d2e57600080fd5b604052919050565b6001600160a01b03811681146119cd57600080fd5b80151581146119cd57600080fdfea26469706673582212201280e8fa097a8a30dbbcfd0c81c7ae5b98d2d17dd854ce3eb7abcd1efe08c54664736f6c634300060a0033",
  "libraries": {
    "MarginVault": "0x6a5862B765e44C5Ed430C2fa7e84CA4ADd5861A5"
  },
  "devdoc": {
    "author": "Opyn Team",
    "methods": {
      "canSettleAssets(address,address,address,uint256)": {
        "details": "return if underlying, strike, collateral are all allowed to be settled",
        "params": {
          "_collateral": "oToken collateral asset",
          "_expiry": "otoken expiry timestamp",
          "_strike": "oToken strike asset",
          "_underlying": "oToken underlying asset"
        },
        "returns": {
          "_0": "True if the oToken has expired AND all oracle prices at the expiry timestamp have been finalized, False if not"
        }
      },
      "donate(address,uint256)": {
        "details": "use donate() instead of direct transfer() to store the balance in assetBalance",
        "params": {
          "_amount": "amount to donate to pool",
          "_asset": "asset address"
        }
      },
      "getAccountVaultCounter(address)": {
        "params": {
          "_accountOwner": "account owner address"
        },
        "returns": {
          "_0": "number of vaults"
        }
      },
      "getConfiguration()": {
        "returns": {
          "_0": "whitelist, the address of the whitelist module",
          "_1": "oracle, the address of the oracle module",
          "_2": "calculator, the address of the calculator module",
          "_3": "pool, the address of the pool module"
        }
      },
      "getNakedCap(address)": {
        "params": {
          "_asset": "collateral asset address"
        },
        "returns": {
          "_0": "cap amount"
        }
      },
      "getNakedPoolBalance(address)": {
        "params": {
          "_asset": "collateral asset address"
        },
        "returns": {
          "_0": "naked pool balance"
        }
      },
      "getPayout(address,uint256)": {
        "params": {
          "_amount": "amount of the oToken to calculate the payout for, always represented in 1e8",
          "_otoken": "oToken address"
        },
        "returns": {
          "_0": "amount of collateral to pay out"
        }
      },
      "getProceed(address,uint256)": {
        "params": {
          "_owner": "account owner of the vault",
          "_vaultId": "vaultId to return balances for"
        },
        "returns": {
          "_0": "amount of collateral that can be taken out"
        }
      },
      "getVault(address,uint256)": {
        "params": {
          "_owner": "account owner",
          "_vaultId": "vault id of vault to return"
        },
        "returns": {
          "_0": "Vault struct that corresponds to the _vaultId of _owner"
        }
      },
      "getVaultWithDetails(address,uint256)": {
        "params": {
          "_owner": "account owner",
          "_vaultId": "vault id of vault to return"
        },
        "returns": {
          "_0": "Vault struct that corresponds to the _vaultId of _owner, vault type and the latest timestamp when the vault was updated"
        }
      },
      "hasExpired(address)": {
        "params": {
          "_otoken": "oToken address"
        },
        "returns": {
          "_0": "True if the otoken has expired, False if not"
        }
      },
      "initialize(address,address)": {
        "params": {
          "_addressBook": "addressbook module",
          "_owner": "account owner address"
        }
      },
      "isLiquidatable(address,uint256,uint256)": {
        "params": {
          "_owner": "vault owner address",
          "_roundId": "chainlink round id to check vault status at",
          "_vaultId": "vault id to check"
        },
        "returns": {
          "_0": "isUnderCollat, true if vault is undercollateralized, the price of 1 repaid otoken and the otoken collateral dust amount"
        }
      },
      "isOperator(address,address)": {
        "params": {
          "_operator": "account operator address",
          "_owner": "account owner address"
        },
        "returns": {
          "_0": "True if the _operator is an approved operator for the _owner account"
        }
      },
      "isSettlementAllowed(address)": {
        "details": "return if an expired oToken is ready to be settled, only true when price for underlying, strike and collateral assets at this specific expiry is available in our Oracle module",
        "params": {
          "_otoken": "oToken"
        }
      },
      "operate((uint8,address,address,address,uint256,uint256,uint256,bytes)[])": {
        "details": "can only be called when the system is not fully paused",
        "params": {
          "_actions": "array of actions arguments"
        }
      },
      "owner()": {
        "details": "Returns the address of the current owner."
      },
      "refreshConfiguration()": {
        "details": "updates the configuration of the controller. can only be called by the owner"
      },
      "renounceOwnership()": {
        "details": "Leaves the contract without owner. It will not be possible to call `onlyOwner` functions anymore. Can only be called by the current owner. NOTE: Renouncing ownership will leave the contract without an owner, thereby removing any functionality that is only available to the owner."
      },
      "setCallRestriction(bool)": {
        "details": "can only be called by the owner",
        "params": {
          "_isRestricted": "new call restriction state"
        }
      },
      "setFullPauser(address)": {
        "details": "can only be called by the owner",
        "params": {
          "_fullPauser": "new fullPauser address"
        }
      },
      "setNakedCap(address,uint256)": {
        "details": "can only be called by owner",
        "params": {
          "_cap": "cap amount, should be scaled by collateral asset decimals",
          "_collateral": "collateral asset address"
        }
      },
      "setOperator(address,bool)": {
        "details": "can only be updated by the vault owner",
        "params": {
          "_isOperator": "new boolean value that expresses if the sender is giving or revoking privileges for _operator",
          "_operator": "operator that the sender wants to give privileges to or revoke them from"
        }
      },
      "setPartialPauser(address)": {
        "details": "can only be called by the owner",
        "params": {
          "_partialPauser": "new partialPauser address"
        }
      },
      "setSystemFullyPaused(bool)": {
        "details": "can only be called by the fullyPauser",
        "params": {
          "_fullyPaused": "new boolean value to set systemFullyPaused to"
        }
      },
      "setSystemPartiallyPaused(bool)": {
        "details": "can only be called by the partialPauser",
        "params": {
          "_partiallyPaused": "new boolean value to set systemPartiallyPaused to"
        }
      },
      "sync(address,uint256)": {
        "details": "anyone can update the latest time the vault was touched by calling this function vaultLatestUpdate will sync if the vault is well collateralized",
        "params": {
          "_owner": "vault owner address",
          "_vaultId": "vault id"
        }
      },
      "transferOwnership(address)": {
        "details": "Transfers ownership of the contract to a new account (`newOwner`). Can only be called by the current owner."
      }
    },
    "stateVariables": {
      "BASE": {
        "details": "scale used in MarginCalculator"
      },
      "accountVaultCounter": {
        "details": "mapping between an owner address and the number of owner address vaults"
      },
      "nakedCap": {
        "details": "mapping to store cap amount for naked margin vault per options collateral asset (scaled by collateral asset decimals)"
      },
      "nakedPoolBalance": {
        "details": "mapping to store amount of naked margin vaults in pool"
      },
      "operators": {
        "details": "mapping between an account owner and their approved or unapproved account operators"
      },
      "vaultLatestUpdate": {
        "details": "mapping to store the timestamp at which the vault was last updated, will be updated in every action that changes the vault state or when calling sync()"
      },
      "vaultType": {
        "details": "mapping to map vault by each vault type, naked margin vault should be set to 1, spread/max loss vault should be set to 0"
      },
      "vaults": {
        "details": "mapping between an owner address and a specific vault using a vault id"
      }
    },
    "title": "Controller"
  },
  "userdoc": {
    "methods": {
      "callRestricted()": {
        "notice": "True if a call action can only be executed to a whitelisted callee"
      },
      "donate(address,uint256)": {
        "notice": "send asset amount to margin pool"
      },
      "fullPauser()": {
        "notice": "address that has permission to fully pause the system, where all system functionality is paused"
      },
      "getAccountVaultCounter(address)": {
        "notice": "get the number of vaults for a specified account owner"
      },
      "getConfiguration()": {
        "notice": "returns the current controller configuration"
      },
      "getNakedCap(address)": {
        "notice": "get cap amount for collateral asset"
      },
      "getNakedPoolBalance(address)": {
        "notice": "get amount of collateral deposited in all naked margin vaults"
      },
      "getPayout(address,uint256)": {
        "notice": "get an oToken's payout/cash value after expiry, in the collateral asset"
      },
      "getProceed(address,uint256)": {
        "notice": "return a vault's proceeds pre or post expiry, the amount of collateral that can be removed from a vault"
      },
      "getVault(address,uint256)": {
        "notice": "return a specific vault"
      },
      "getVaultWithDetails(address,uint256)": {
        "notice": "return a specific vault"
      },
      "hasExpired(address)": {
        "notice": "check if an oToken has expired"
      },
      "initialize(address,address)": {
        "notice": "initalize the deployed contract"
      },
      "isLiquidatable(address,uint256,uint256)": {
        "notice": "check if a vault is liquidatable in a specific round id"
      },
      "isOperator(address,address)": {
        "notice": "check if a specific address is an operator for an owner account"
      },
      "operate((uint8,address,address,address,uint256,uint256,uint256,bytes)[])": {
        "notice": "execute a number of actions on specific vaults"
      },
      "partialPauser()": {
        "notice": "address that has permission to partially pause the system, where system functionality is paused except redeem and settleVault"
      },
      "setCallRestriction(bool)": {
        "notice": "allows the owner to toggle the restriction on whitelisted call actions and only allow whitelisted call addresses or allow any arbitrary call addresses"
      },
      "setFullPauser(address)": {
        "notice": "allows the owner to set the fullPauser address"
      },
      "setNakedCap(address,uint256)": {
        "notice": "set cap amount for collateral asset used in naked margin"
      },
      "setOperator(address,bool)": {
        "notice": "allows a user to give or revoke privileges to an operator which can act on their behalf on their vaults"
      },
      "setPartialPauser(address)": {
        "notice": "allows the owner to set the partialPauser address"
      },
      "setSystemFullyPaused(bool)": {
        "notice": "allows the fullPauser to toggle the systemFullyPaused variable and fully pause or fully unpause the system"
      },
      "setSystemPartiallyPaused(bool)": {
        "notice": "allows the partialPauser to toggle the systemPartiallyPaused variable and partially pause or partially unpause the system"
      },
      "sync(address,uint256)": {
        "notice": "sync vault latest update timestamp"
      },
      "systemFullyPaused()": {
        "notice": "True if all system functionality is paused"
      },
      "systemPartiallyPaused()": {
        "notice": "True if all system functionality is paused other than redeem and settle vault"
      }
    },
    "notice": "Contract that controls the Gamma Protocol and the interaction of all sub contracts"
  },
  "storageLayout": {
    "storage": [
      {
        "astId": 15211,
        "contract": "contracts/core/Controller.sol:Controller",
        "label": "initialized",
        "offset": 0,
        "slot": "0",
        "type": "t_bool"
      },
      {
        "astId": 15214,
        "contract": "contracts/core/Controller.sol:Controller",
        "label": "initializing",
        "offset": 1,
        "slot": "0",
        "type": "t_bool"
      },
      {
        "astId": 15279,
        "contract": "contracts/core/Controller.sol:Controller",
        "label": "______gap",
        "offset": 0,
        "slot": "1",
        "type": "t_array(t_uint256)50_storage"
      },
      {
        "astId": 15126,
        "contract": "contracts/core/Controller.sol:Controller",
        "label": "__gap",
        "offset": 0,
        "slot": "51",
        "type": "t_array(t_uint256)50_storage"
      },
      {
        "astId": 15291,
        "contract": "contracts/core/Controller.sol:Controller",
        "label": "_owner",
        "offset": 0,
        "slot": "101",
        "type": "t_address"
      },
      {
        "astId": 15409,
        "contract": "contracts/core/Controller.sol:Controller",
        "label": "__gap",
        "offset": 0,
        "slot": "102",
        "type": "t_array(t_uint256)49_storage"
      },
      {
        "astId": 15588,
        "contract": "contracts/core/Controller.sol:Controller",
        "label": "_notEntered",
        "offset": 0,
        "slot": "151",
        "type": "t_bool"
      },
      {
        "astId": 15629,
        "contract": "contracts/core/Controller.sol:Controller",
        "label": "__gap",
        "offset": 0,
        "slot": "152",
        "type": "t_array(t_uint256)49_storage"
      },
      {
        "astId": 441,
        "contract": "contracts/core/Controller.sol:Controller",
        "label": "addressbook",
        "offset": 0,
        "slot": "201",
        "type": "t_contract(AddressBookInterface)9225"
      },
      {
        "astId": 443,
        "contract": "contracts/core/Controller.sol:Controller",
        "label": "whitelist",
        "offset": 0,
        "slot": "202",
        "type": "t_contract(WhitelistInterface)9842"
      },
      {
        "astId": 445,
        "contract": "contracts/core/Controller.sol:Controller",
        "label": "oracle",
        "offset": 0,
        "slot": "203",
        "type": "t_contract(OracleInterface)9641"
      },
      {
        "astId": 447,
        "contract": "contracts/core/Controller.sol:Controller",
        "label": "calculator",
        "offset": 0,
        "slot": "204",
        "type": "t_contract(MarginCalculatorInterface)9428"
      },
      {
        "astId": 449,
        "contract": "contracts/core/Controller.sol:Controller",
        "label": "pool",
        "offset": 0,
        "slot": "205",
        "type": "t_contract(MarginPoolInterface)9504"
      },
      {
        "astId": 456,
        "contract": "contracts/core/Controller.sol:Controller",
        "label": "partialPauser",
        "offset": 0,
        "slot": "206",
        "type": "t_address"
      },
      {
        "astId": 459,
        "contract": "contracts/core/Controller.sol:Controller",
        "label": "fullPauser",
        "offset": 0,
        "slot": "207",
        "type": "t_address"
      },
      {
        "astId": 462,
        "contract": "contracts/core/Controller.sol:Controller",
        "label": "systemPartiallyPaused",
        "offset": 20,
        "slot": "207",
        "type": "t_bool"
      },
      {
        "astId": 465,
        "contract": "contracts/core/Controller.sol:Controller",
        "label": "systemFullyPaused",
        "offset": 21,
        "slot": "207",
        "type": "t_bool"
      },
      {
        "astId": 468,
        "contract": "contracts/core/Controller.sol:Controller",
        "label": "callRestricted",
        "offset": 22,
        "slot": "207",
        "type": "t_bool"
      },
      {
        "astId": 473,
        "contract": "contracts/core/Controller.sol:Controller",
        "label": "accountVaultCounter",
        "offset": 0,
        "slot": "208",
        "type": "t_mapping(t_address,t_uint256)"
      },
      {
        "astId": 480,
        "contract": "contracts/core/Controller.sol:Controller",
        "label": "vaults",
        "offset": 0,
        "slot": "209",
        "type": "t_mapping(t_address,t_mapping(t_uint256,t_struct(Vault)10985_storage))"
      },
      {
        "astId": 487,
        "contract": "contracts/core/Controller.sol:Controller",
        "label": "operators",
        "offset": 0,
        "slot": "210",
        "type": "t_mapping(t_address,t_mapping(t_address,t_bool))"
      },
      {
        "astId": 494,
        "contract": "contracts/core/Controller.sol:Controller",
        "label": "vaultType",
        "offset": 0,
        "slot": "211",
        "type": "t_mapping(t_address,t_mapping(t_uint256,t_uint256))"
      },
      {
        "astId": 501,
        "contract": "contracts/core/Controller.sol:Controller",
        "label": "vaultLatestUpdate",
        "offset": 0,
        "slot": "212",
        "type": "t_mapping(t_address,t_mapping(t_uint256,t_uint256))"
      },
      {
        "astId": 506,
        "contract": "contracts/core/Controller.sol:Controller",
        "label": "nakedCap",
        "offset": 0,
        "slot": "213",
        "type": "t_mapping(t_address,t_uint256)"
      },
      {
        "astId": 511,
        "contract": "contracts/core/Controller.sol:Controller",
        "label": "nakedPoolBalance",
        "offset": 0,
        "slot": "214",
        "type": "t_mapping(t_address,t_uint256)"
      }
    ],
    "types": {
      "t_address": {
        "encoding": "inplace",
        "label": "address",
        "numberOfBytes": "20"
      },
      "t_array(t_address)dyn_storage": {
        "base": "t_address",
        "encoding": "dynamic_array",
        "label": "address[]",
        "numberOfBytes": "32"
      },
      "t_array(t_uint256)49_storage": {
        "base": "t_uint256",
        "encoding": "inplace",
        "label": "uint256[49]",
        "numberOfBytes": "1568"
      },
      "t_array(t_uint256)50_storage": {
        "base": "t_uint256",
        "encoding": "inplace",
        "label": "uint256[50]",
        "numberOfBytes": "1600"
      },
      "t_array(t_uint256)dyn_storage": {
        "base": "t_uint256",
        "encoding": "dynamic_array",
        "label": "uint256[]",
        "numberOfBytes": "32"
      },
      "t_bool": {
        "encoding": "inplace",
        "label": "bool",
        "numberOfBytes": "1"
      },
      "t_contract(AddressBookInterface)9225": {
        "encoding": "inplace",
        "label": "contract AddressBookInterface",
        "numberOfBytes": "20"
      },
      "t_contract(MarginCalculatorInterface)9428": {
        "encoding": "inplace",
        "label": "contract MarginCalculatorInterface",
        "numberOfBytes": "20"
      },
      "t_contract(MarginPoolInterface)9504": {
        "encoding": "inplace",
        "label": "contract MarginPoolInterface",
        "numberOfBytes": "20"
      },
      "t_contract(OracleInterface)9641": {
        "encoding": "inplace",
        "label": "contract OracleInterface",
        "numberOfBytes": "20"
      },
      "t_contract(WhitelistInterface)9842": {
        "encoding": "inplace",
        "label": "contract WhitelistInterface",
        "numberOfBytes": "20"
      },
      "t_mapping(t_address,t_bool)": {
        "encoding": "mapping",
        "key": "t_address",
        "label": "mapping(address => bool)",
        "numberOfBytes": "32",
        "value": "t_bool"
      },
      "t_mapping(t_address,t_mapping(t_address,t_bool))": {
        "encoding": "mapping",
        "key": "t_address",
        "label": "mapping(address => mapping(address => bool))",
        "numberOfBytes": "32",
        "value": "t_mapping(t_address,t_bool)"
      },
      "t_mapping(t_address,t_mapping(t_uint256,t_struct(Vault)10985_storage))": {
        "encoding": "mapping",
        "key": "t_address",
        "label": "mapping(address => mapping(uint256 => struct MarginVault.Vault))",
        "numberOfBytes": "32",
        "value": "t_mapping(t_uint256,t_struct(Vault)10985_storage)"
      },
      "t_mapping(t_address,t_mapping(t_uint256,t_uint256))": {
        "encoding": "mapping",
        "key": "t_address",
        "label": "mapping(address => mapping(uint256 => uint256))",
        "numberOfBytes": "32",
        "value": "t_mapping(t_uint256,t_uint256)"
      },
      "t_mapping(t_address,t_uint256)": {
        "encoding": "mapping",
        "key": "t_address",
        "label": "mapping(address => uint256)",
        "numberOfBytes": "32",
        "value": "t_uint256"
      },
      "t_mapping(t_uint256,t_struct(Vault)10985_storage)": {
        "encoding": "mapping",
        "key": "t_uint256",
        "label": "mapping(uint256 => struct MarginVault.Vault)",
        "numberOfBytes": "32",
        "value": "t_struct(Vault)10985_storage"
      },
      "t_mapping(t_uint256,t_uint256)": {
        "encoding": "mapping",
        "key": "t_uint256",
        "label": "mapping(uint256 => uint256)",
        "numberOfBytes": "32",
        "value": "t_uint256"
      },
      "t_struct(Vault)10985_storage": {
        "encoding": "inplace",
        "label": "struct MarginVault.Vault",
        "members": [
          {
            "astId": 10969,
            "contract": "contracts/core/Controller.sol:Controller",
            "label": "shortOtokens",
            "offset": 0,
            "slot": "0",
            "type": "t_array(t_address)dyn_storage"
          },
          {
            "astId": 10972,
            "contract": "contracts/core/Controller.sol:Controller",
            "label": "longOtokens",
            "offset": 0,
            "slot": "1",
            "type": "t_array(t_address)dyn_storage"
          },
          {
            "astId": 10975,
            "contract": "contracts/core/Controller.sol:Controller",
            "label": "collateralAssets",
            "offset": 0,
            "slot": "2",
            "type": "t_array(t_address)dyn_storage"
          },
          {
            "astId": 10978,
            "contract": "contracts/core/Controller.sol:Controller",
            "label": "shortAmounts",
            "offset": 0,
            "slot": "3",
            "type": "t_array(t_uint256)dyn_storage"
          },
          {
            "astId": 10981,
            "contract": "contracts/core/Controller.sol:Controller",
            "label": "longAmounts",
            "offset": 0,
            "slot": "4",
            "type": "t_array(t_uint256)dyn_storage"
          },
          {
            "astId": 10984,
            "contract": "contracts/core/Controller.sol:Controller",
            "label": "collateralAmounts",
            "offset": 0,
            "slot": "5",
            "type": "t_array(t_uint256)dyn_storage"
          }
        ],
        "numberOfBytes": "192"
      },
      "t_uint256": {
        "encoding": "inplace",
        "label": "uint256",
        "numberOfBytes": "32"
      }
    }
  }
}