{
  "address": "0x9f13dd8149F3CdA298F9dF404A467c3F24Fa02C7",
  "abi": [
    {
      "inputs": [
        {
          "internalType": "address",
          "name": "_addressBook",
          "type": "address"
        }
      ],
      "stateMutability": "nonpayable",
      "type": "constructor"
    },
    {
      "anonymous": false,
      "inputs": [
        {
          "indexed": false,
          "internalType": "address",
          "name": "tokenAddress",
          "type": "address"
        },
        {
          "indexed": false,
          "internalType": "address",
          "name": "creator",
          "type": "address"
        },
        {
          "indexed": true,
          "internalType": "address",
          "name": "underlying",
          "type": "address"
        },
        {
          "indexed": true,
          "internalType": "address",
          "name": "strike",
          "type": "address"
        },
        {
          "indexed": true,
          "internalType": "address",
          "name": "collateral",
          "type": "address"
        },
        {
          "indexed": false,
          "internalType": "uint256",
          "name": "strikePrice",
          "type": "uint256"
        },
        {
          "indexed": false,
          "internalType": "uint256",
          "name": "expiry",
          "type": "uint256"
        },
        {
          "indexed": false,
          "internalType": "bool",
          "name": "isPut",
          "type": "bool"
        }
      ],
      "name": "OtokenCreated",
      "type": "event"
    },
    {
      "inputs": [],
      "name": "addressBook",
      "outputs": [
        {
          "internalType": "address",
          "name": "",
          "type": "address"
        }
      ],
      "stateMutability": "view",
      "type": "function"
    },
    {
      "inputs": [
        {
          "internalType": "address",
          "name": "_underlyingAsset",
          "type": "address"
        },
        {
          "internalType": "address",
          "name": "_strikeAsset",
          "type": "address"
        },
        {
          "internalType": "address",
          "name": "_collateralAsset",
          "type": "address"
        },
        {
          "internalType": "uint256",
          "name": "_strikePrice",
          "type": "uint256"
        },
        {
          "internalType": "uint256",
          "name": "_expiry",
          "type": "uint256"
        },
        {
          "internalType": "bool",
          "name": "_isPut",
          "type": "bool"
        }
      ],
      "name": "createOtoken",
      "outputs": [
        {
          "internalType": "address",
          "name": "",
          "type": "address"
        }
      ],
      "stateMutability": "nonpayable",
      "type": "function"
    },
    {
      "inputs": [
        {
          "internalType": "address",
          "name": "_underlyingAsset",
          "type": "address"
        },
        {
          "internalType": "address",
          "name": "_strikeAsset",
          "type": "address"
        },
        {
          "internalType": "address",
          "name": "_collateralAsset",
          "type": "address"
        },
        {
          "internalType": "uint256",
          "name": "_strikePrice",
          "type": "uint256"
        },
        {
          "internalType": "uint256",
          "name": "_expiry",
          "type": "uint256"
        },
        {
          "internalType": "bool",
          "name": "_isPut",
          "type": "bool"
        }
      ],
      "name": "getOtoken",
      "outputs": [
        {
          "internalType": "address",
          "name": "",
          "type": "address"
        }
      ],
      "stateMutability": "view",
      "type": "function"
    },
    {
      "inputs": [],
      "name": "getOtokensLength",
      "outputs": [
        {
          "internalType": "uint256",
          "name": "",
          "type": "uint256"
        }
      ],
      "stateMutability": "view",
      "type": "function"
    },
    {
      "inputs": [
        {
          "internalType": "address",
          "name": "_underlyingAsset",
          "type": "address"
        },
        {
          "internalType": "address",
          "name": "_strikeAsset",
          "type": "address"
        },
        {
          "internalType": "address",
          "name": "_collateralAsset",
          "type": "address"
        },
        {
          "internalType": "uint256",
          "name": "_strikePrice",
          "type": "uint256"
        },
        {
          "internalType": "uint256",
          "name": "_expiry",
          "type": "uint256"
        },
        {
          "internalType": "bool",
          "name": "_isPut",
          "type": "bool"
        }
      ],
      "name": "getTargetOtokenAddress",
      "outputs": [
        {
          "internalType": "address",
          "name": "",
          "type": "address"
        }
      ],
      "stateMutability": "view",
      "type": "function"
    },
    {
      "inputs": [
        {
          "internalType": "uint256",
          "name": "",
          "type": "uint256"
        }
      ],
      "name": "otokens",
      "outputs": [
        {
          "internalType": "address",
          "name": "",
          "type": "address"
        }
      ],
      "stateMutability": "view",
      "type": "function"
    }
  ],
  "transactionHash": "0xa663cdd4ccbaab561a88447f3048ae4d66527d4da9cb2ed580b635add6f00856",
  "args": [
    "0x5F7a9222fc10348D0A0AA3aBDC7A74cC90b7a385"
  ],
  "numDeployments": 1,
  "solcInputHash": "e64f7796e753573a0d4471a5ea61f62d",
  "bytecode": "0x608060405234801561001057600080fd5b506040516112683803806112688339818101604052602081101561003357600080fd5b5051600080546001600160a01b039092166001600160a01b0319909216919091179055611203806100656000396000f3fe608060405234801561001057600080fd5b50600436106100625760003560e01c8063115470541461006757806346e63dc4146100cd578063b86b9a64146100e7578063c097463014610131578063de0120de1461017b578063f5887cdd14610198575b600080fd5b6100b1600480360360c081101561007d57600080fd5b506001600160a01b03813581169160208101358216916040820135169060608101359060808101359060a0013515156101a0565b604080516001600160a01b039092168252519081900360200190f35b6100d56101d5565b60408051918252519081900360200190f35b6100b1600480360360c08110156100fd57600080fd5b506001600160a01b03813581169160208101358216916040820135169060608101359060808101359060a0013515156101db565b6100b1600480360360c081101561014757600080fd5b506001600160a01b03813581169160208101358216916040820135169060608101359060808101359060a0013515156102db565b6100b16004803603602081101561019157600080fd5b503561081d565b6100b1610844565b6000806101b1888888888888610853565b6000908152600260205260409020546001600160a01b031698975050505050505050565b60015490565b600080546040805163a8de41d560e01b8152905183926001600160a01b03169163a8de41d5916004808301926020929190829003018186803b15801561022057600080fd5b505afa158015610234573d6000803e3d6000fd5b505050506040513d602081101561024a57600080fd5b5051600054604080516001600160a01b0392831660248201528b831660448201528a83166064820152918916608483015260a4820188905260c4820187905285151560e4808401919091528151808403909101815261010490920190526020810180516001600160e01b0316633d8c37cd60e21b1790529091506102ce82826108bb565b9998505050505050505050565b600042831161031b5760405162461bcd60e51b815260040180806020018281038252602a8152602001806110e8602a913960400191505060405180910390fd5b6402c33b9c80831061035e5760405162461bcd60e51b815260040180806020018281038252603b815260200180611166603b913960400191505060405180910390fd5b610383620151806103778561708063ffffffff610a4716565b9063ffffffff610a9016565b156103bf5760405162461bcd60e51b815260040180806020018281038252602d8152602001806111a1602d913960400191505060405180910390fd5b60006103cf888888888888610853565b6000818152600260205260409020549091506001600160a01b0316156104265760405162461bcd60e51b81526004018080602001828103825260258152602001806110c36025913960400191505060405180910390fd5b60008060009054906101000a90046001600160a01b03166001600160a01b031663d01f63f56040518163ffffffff1660e01b815260040160206040518083038186803b15801561047557600080fd5b505afa158015610489573d6000803e3d6000fd5b505050506040513d602081101561049f57600080fd5b50516040805163401a83cf60e01b81526001600160a01b038c811660048301528b811660248301528a81166044830152871515606483015291519293509083169163401a83cf91608480820192602092909190829003018186803b15801561050657600080fd5b505afa15801561051a573d6000803e3d6000fd5b505050506040513d602081101561053057600080fd5b505161056d5760405162461bcd60e51b81526004018080602001828103825260228152602001806111126022913960400191505060405180910390fd5b83158061057a5750600086115b6105b55760405162461bcd60e51b81526004018080602001828103825260328152602001806111346032913960400191505060405180910390fd5b60008060009054906101000a90046001600160a01b03166001600160a01b031663a8de41d56040518163ffffffff1660e01b815260040160206040518083038186803b15801561060457600080fd5b505afa158015610618573d6000803e3d6000fd5b505050506040513d602081101561062e57600080fd5b505160008054604080516001600160a01b0392831660248201528e831660448201528d83166064820152918c16608483015260a482018b905260c482018a905288151560e4808401919091528151808403909101815261010490920190526020810180516001600160e01b0316633d8c37cd60e21b1790529192506106b38383610ad2565b60008681526002602052604080822080546001600160a01b038086166001600160a01b031992831681179093556001805480820182559086527fb10e2d527612073b26eecdfd717e6a320cf44b4afac2b0732d9fcbe2b7fa0cf60180549092168317909155825163763893db60e11b8152600481019290925291519394509087169263ec7127b69260248084019391929182900301818387803b15801561075957600080fd5b505af115801561076d573d6000803e3d6000fd5b50505050896001600160a01b03168b6001600160a01b03168d6001600160a01b03167fedf283b0b3396dd34e23a917cb887ad557f18a593be3a2e9c069fd59f19a811a84338e8e8e60405180866001600160a01b03166001600160a01b03168152602001856001600160a01b03166001600160a01b03168152602001848152602001838152602001821515151581526020019550505050505060405180910390a49b9a5050505050505050505050565b6001818154811061082a57fe5b6000918252602090912001546001600160a01b0316905081565b6000546001600160a01b031681565b604080516bffffffffffffffffffffffff19606098891b811660208084019190915297891b811660348301529590971b9094166048870152605c860192909252607c850152151560f81b609c8401528051607d818503018152609d9093019052815191012090565b60006060604051806020016108cf90610ec5565b601f1982820381018352601f9091011660408181526001600160a01b038716602083810191825282840192835287516060850152875189948994926080909101919085019080838360005b8381101561093257818101518382015260200161091a565b50505050905090810190601f16801561095f5780820380516001836020036101000a031916815260200191505b5093505050506040516020818303038152906040526040516020018083805190602001908083835b602083106109a65780518252601f199092019160209182019101610987565b51815160209384036101000a600019018019909216911617905285519190930192850191508083835b602083106109ee5780518252601f1990920191602091820191016109cf565b6001836020036101000a038019825116818451168082178552505050505050905001925050506040516020818303038152906040529050600081805190602001209050610a3e6000801b82610c53565b95945050505050565b6000610a8983836040518060400160405280601e81526020017f536166654d6174683a207375627472616374696f6e206f766572666c6f770000815250610c60565b9392505050565b6000610a8983836040518060400160405280601881526020017f536166654d6174683a206d6f64756c6f206279207a65726f0000000000000000815250610cf7565b6000606060405180602001610ae690610ec5565b601f1982820381018352601f9091011660408181526001600160a01b038716602083810191825282840192835287516060850152875189948994926080909101919085019080838360005b83811015610b49578181015183820152602001610b31565b50505050905090810190601f168015610b765780820380516001836020036101000a031916815260200191505b5093505050506040516020818303038152906040526040516020018083805190602001908083835b60208310610bbd5780518252601f199092019160209182019101610b9e565b51815160209384036101000a600019018019909216911617905285519190930192850191508083835b60208310610c055780518252601f199092019160209182019101610be6565b6001836020036101000a038019825116818451168082178552505050505050905001925050506040516020818303038152906040529050610c4b60008060001b83610d59565b949350505050565b6000610a89838330610e6a565b60008184841115610cef5760405162461bcd60e51b81526004018080602001828103825283818151815260200191508051906020019080838360005b83811015610cb4578181015183820152602001610c9c565b50505050905090810190601f168015610ce15780820380516001836020036101000a031916815260200191505b509250505060405180910390fd5b505050900390565b60008183610d465760405162461bcd60e51b8152602060048201818152835160248401528351909283926044909101919085019080838360008315610cb4578181015183820152602001610c9c565b50828481610d5057fe5b06949350505050565b60008084471015610db1576040805162461bcd60e51b815260206004820152601d60248201527f437265617465323a20696e73756666696369656e742062616c616e6365000000604482015290519081900360640190fd5b8251610e04576040805162461bcd60e51b815260206004820181905260248201527f437265617465323a2062797465636f6465206c656e677468206973207a65726f604482015290519081900360640190fd5b8383516020850187f590506001600160a01b038116610c4b576040805162461bcd60e51b815260206004820152601960248201527f437265617465323a204661696c6564206f6e206465706c6f7900000000000000604482015290519081900360640190fd5b604080516001600160f81b031960208083019190915260609390931b6bffffffffffffffffffffffff191660218201526035810194909452605580850193909352805180850390930183526075909301909252805191012090565b6101f080610ed38339019056fe60806040526040516101f03803806101f08339818101604052604081101561002657600080fd5b81516020830180516040519294929383019291908464010000000082111561004d57600080fd5b90830190602082018581111561006257600080fd5b825164010000000081118282018810171561007c57600080fd5b82525081516020918201929091019080838360005b838110156100a9578181015183820152602001610091565b50505050905090810190601f1680156100d65780820380516001836020036101000a031916815260200191505b506040525050506000826001600160a01b0316826040518082805190602001908083835b602083106101195780518252601f1990920191602091820191016100fa565b6001836020036101000a038019825116818451168082178552505050505050905001915050600060405180830381855af49150503d8060008114610179576040519150601f19603f3d011682016040523d82523d6000602084013e61017e565b606091505b5050905080610191573d6000803e3d6000fd5b6040805169363d3d373d3d3d363d7360b01b6020808301919091526001600160601b0319606087901b16602a8301526e5af43d82803e903d91602b57fd5bf360881b603e8301528251602d81840381018252604d9093019093528201f3fe4f746f6b656e466163746f72793a204f7074696f6e20616c726561647920637265617465644f746f6b656e466163746f72793a2043616e2774206372656174652065787069726564206f7074696f6e4f746f6b656e466163746f72793a20556e737570706f727465642050726f647563744f746f6b656e466163746f72793a2043616e277420637265617465206120243020737472696b6520707574206f7074696f6e4f746f6b656e466163746f72793a2043616e277420637265617465206f7074696f6e207769746820657870697279203e20323334352f31322f33314f746f6b656e466163746f72793a204f7074696f6e2068617320746f206578706972652030383a303020555443a2646970667358221220b25a2f187fe35f72bc6849abbb13414552e51ba6628328706de6368ce96468fc64736f6c634300060a0033",
  "devdoc": {
    "author": "Opyn Team",
    "details": "Calculate contract address before each creation with CREATE2 and deploy eip-1167 minimal proxies for oToken logic contract",
    "methods": {
      "createOtoken(address,address,address,uint256,uint256,bool)": {
        "details": "deploy an eip-1167 minimal proxy with CREATE2 and register it to the whitelist module",
        "params": {
          "_collateralAsset": "asset that is held as collateral against short/written options",
          "_expiry": "expiration timestamp as a unix timestamp",
          "_isPut": "True if a put option, False if a call option",
          "_strikeAsset": "asset that the strike price is denominated in",
          "_strikePrice": "strike price with decimals = 18",
          "_underlyingAsset": "asset that the option references"
        },
        "returns": {
          "_0": "newOtoken address of the newly created option"
        }
      },
      "getOtoken(address,address,address,uint256,uint256,bool)": {
        "params": {
          "_collateralAsset": "asset that is held as collateral against short/written options",
          "_expiry": "expiration timestamp as a unix timestamp",
          "_isPut": "True if a put option, False if a call option",
          "_strikeAsset": "asset that the strike price is denominated in",
          "_strikePrice": "strike price with decimals = 18",
          "_underlyingAsset": "asset that the option references"
        },
        "returns": {
          "_0": "the address of target otoken."
        }
      },
      "getOtokensLength()": {
        "returns": {
          "_0": "length of the oTokens array"
        }
      },
      "getTargetOtokenAddress(address,address,address,uint256,uint256,bool)": {
        "details": "return the exact address that will be deployed at with _computeAddress",
        "params": {
          "_collateralAsset": "asset that is held as collateral against short/written options",
          "_expiry": "expiration timestamp as a unix timestamp",
          "_isPut": "True if a put option, False if a call option",
          "_strikeAsset": "asset that the strike price is denominated in",
          "_strikePrice": "strike price with decimals = 18",
          "_underlyingAsset": "asset that the option references"
        },
        "returns": {
          "_0": "targetAddress the address this oToken would be deployed at"
        }
      }
    },
    "stateVariables": {
      "MAX_EXPIRY": {
        "details": "max expiry that BokkyPooBahsDateTimeLibrary can handle. (2345/12/31)"
      },
      "idToAddress": {
        "details": "mapping from parameters hash to its deployed address"
      }
    },
    "title": "A factory to create Opyn oTokens"
  },
  "userdoc": {
    "methods": {
      "addressBook()": {
        "notice": "Opyn AddressBook contract that records the address of the Whitelist module and the Otoken impl address. */"
      },
      "createOtoken(address,address,address,uint256,uint256,bool)": {
        "notice": "create new oTokens"
      },
      "getOtoken(address,address,address,uint256,uint256,bool)": {
        "notice": "get the oToken address for an already created oToken, if no oToken has been created with these parameters, it will return address(0)"
      },
      "getOtokensLength()": {
        "notice": "get the total oTokens created by the factory"
      },
      "getTargetOtokenAddress(address,address,address,uint256,uint256,bool)": {
        "notice": "get the address at which a new oToken with these parameters would be deployed"
      },
      "otokens(uint256)": {
        "notice": "array of all created otokens */"
      }
    },
    "notice": "SPDX-License-Identifier: UNLICENSEDCreate new oTokens and keep track of all created tokens"
  },
  "storageLayout": {
    "storage": [
      {
        "astId": 7730,
        "contract": "contracts/core/OtokenFactory.sol:OtokenFactory",
        "label": "addressBook",
        "offset": 0,
        "slot": "0",
        "type": "t_address"
      },
      {
        "astId": 7734,
        "contract": "contracts/core/OtokenFactory.sol:OtokenFactory",
        "label": "otokens",
        "offset": 0,
        "slot": "1",
        "type": "t_array(t_address)dyn_storage"
      },
      {
        "astId": 7739,
        "contract": "contracts/core/OtokenFactory.sol:OtokenFactory",
        "label": "idToAddress",
        "offset": 0,
        "slot": "2",
        "type": "t_mapping(t_bytes32,t_address)"
      }
    ],
    "types": {
      "t_address": {
        "encoding": "inplace",
        "label": "address",
        "numberOfBytes": "20"
      },
      "t_array(t_address)dyn_storage": {
        "base": "t_address",
        "encoding": "dynamic_array",
        "label": "address[]",
        "numberOfBytes": "32"
      },
      "t_bytes32": {
        "encoding": "inplace",
        "label": "bytes32",
        "numberOfBytes": "32"
      },
      "t_mapping(t_bytes32,t_address)": {
        "encoding": "mapping",
        "key": "t_bytes32",
        "label": "mapping(bytes32 => address)",
        "numberOfBytes": "32",
        "value": "t_address"
      }
    }
  }
}